:020000040800F2
:1000000000000520194D0008BD4B0008BF4B00083B
:10001000C14B0008C34B0008C54B0008000000009E
:10002000000000000000000000000000E1400008A7
:10003000C74B00080000000081410008E5410008AE
:10004000694D0008694D0008694D0008694D0008B8
:10005000694D0008694D0008694D0008694D0008A8
:10006000694D0008694D0008694D0008694D000898
:10007000C94B0008694D0008D54B0008694D0008C0
:10008000E14B0008694D0008694D0008694D000802
:10009000694D0008694D0008694D0008694D000868
:1000A000694D0008694D0008694D0008694D000858
:1000B000694D0008694D0008694D0008694D000848
:1000C000694D0008694D0008694D0008694D000838
:1000D000694D0008694D0008ED4B0008F94B000818
:1000E000694D0008694D0008694D0008694D000818
:1000F000694D0008694D0008694D0008694D000808
:10010000694D0008694D0008694D0008694D0008F7
:10011000054C0008114C00081D4C0008694D0008F2
:10012000694D0008694D0008694D0008694D0008D7
:10013000694D0008694D0008694D0008694D0008C7
:10014000694D0008694D0008694D0008694D0008B7
:10015000694D0008694D0008694D0008354C0008DC
:10016000694D0008694D0008694D0008694D000897
:10017000694D0008694D0008694D0008694D000887
:10018000694D0008694D0008694D0008294C0008B8
:10019000694D0008694D0008694D0008694D000867
:1001A000694D0008694D0008694D0008694D000857
:1001B000694D0008694D0008694D0008694D000847
:0801C000694D0008694D0008BB
:1001D00010B5054C237833B9044B13B10448AFF381
:1001E00000800123237010BDA0000020000000004B
:1001F000F08F000808B5034B1BB103490348AFF368
:10020000008008BD00000000A4000020F08F00085E
:1002100053B94AB9002908BF00281CBF4FF0FF316D
:100220004FF0FF3000F088B9ADF1080C6DE904CE55
:1002300000F006F8DDF804E0DDE9022304B07047C1
:100240002DE9F047089D8E4604468846002B4AD18A
:100250008A42174662D9B2FA82F64EB1C6F120033D
:1002600001FA06F820FA03F3B74043EA0808B4405D
:100270004FEA174E1FFA87FCB8FBFEF1230C0EFB6A
:10028000118843EA084301FB0CF29A4209D9FB1892
:1002900001F1FF3080F0EA809A4240F2E7800239B3
:1002A0003B449A1AA3B2B2FBFEF00EFB102243EAC3
:1002B000024300FB0CFC9C4509D9FB1800F1FF32FE
:1002C00080F0D6809C4540F2D3803B44023840EA1F
:1002D0000140A3EB0C0300211DB1F3400022C5E94E
:1002E0000032BDE8F0878B4205D90DB1C5E90001A8
:1002F00000210846F5E7B3FA83F1002946D173459A
:1003000002D3824200F20581841A6EEB03020120BF
:100310009046002DE5D0C5E90048E2E7002A00F04C
:100320009080B2FA82F6002E40F0A4808A1A030C64
:100330004FEA174E80B2BCB20121B2FBFEFC0EFBAD
:100340001C2243EA024304FB0CF29A4207D9FB1831
:100350000CF1FF3802D29A4200F2E080C4469B1AA8
:10036000B3FBFEF20EFB123340EA034302FB04F43C
:100370009C4207D9FB1802F1FF3002D29C4200F2E6
:10038000CA8002461B1B42EA0C40A5E7C1F12006C9
:100390008B4022FA06F71F430EFA01F420FA06F307
:1003A0002EFA06FE4FEA1749234300FA01F81FFA16
:1003B00087FCBEFBF9F01C0C09FB10EE44EA0E446E
:1003C00000FB0CFEA64502FA01F209D93C1900F126
:1003D000FF3A80F09C80A64540F2998002383C4468
:1003E000A4EB0E041FFA83FEB4FBF9F309FB1344DC
:1003F0004EEA044403FB0CFCA44508D93C1903F164
:10040000FF3E80F08280A4457FD9023B3C4443EA12
:100410000040A4EB0C04A0FB02EC64457346E146EB
:1004200062D35FD05DB1B8EB030264EB090404FA58
:1004300006F622FA01F31E43CC40C5E90064002110
:100440004FE7B1FBF2FC010C41EA0E4180B240EAF9
:1004500001423B4638463C46B846BE462026B1FBE4
:10046000F7F1A2EB080241EA0C4166E7014618E702
:1004700010462CE7C6F120022EFA02F3B740B14035
:1004800020FA02F24FEA174E0A43B3FBFEF8BCB261
:100490000EFB1833110C41EA034108FB04F9B0408C
:1004A00089454FEA104380B23ED9791808F1FF3CE4
:1004B00001D289451FD8A1EB0901B1FBFEF909FB67
:1004C00004F80EFB191192B242EA0142424529D2C8
:1004D000BA1809F1FF31C4D24245C2D2A9F10201D2
:1004E0003A44BEE7F0459DD2BEEB02036CEB070C2D
:1004F0000138E14696E7A7EB09094944A8F1020C47
:10050000B1FBFEF909FB04F8DBE773467FE75046D1
:1005100066E70846FDE63B44023A33E7ACF1020CDD
:100520003B441CE749469CE7A1EB0901C446B1FBEB
:10053000FEF909FB04F8C4E7704700BF10F8012B6F
:1005400011F8013B012A28BF9A42F7D0D01A704710
:10055000034613F8012B002AFBD1181A0138704703
:10056000034AD2F8883043F47003C2F888307047E9
:1005700000ED00E07047000090F83D30012B33D1D2
:10058000022380F83D300368DA6842F00102DA6045
:10059000164A93421AD0B3F1804F17D0A2F57C428D
:1005A000934213D002F5806293420FD002F580622D
:1005B00093420BD002F57842934207D002F5705275
:1005C000934203D0A2F59432934207D19968084A26
:1005D0000A40062A06D0B2F5803F03D01A6842F0DE
:1005E00001021A600020704701207047000001409E
:1005F000070001007047704770477047036870B587
:10060000DD6804461E69B2070DD5A9070BD56FF04A
:1006100002021A61012202779B699A0775D0FFF7DF
:10062000EAFF00232377730710D568070ED52368E8
:100630006FF0040220461A61022222779B6913F4AC
:10064000407F68D0FFF7D7FF0023237731070FD50E
:100650002A070DD523686FF0080220461A6104228C
:100660002277DB699B075CD0FFF7C5FF0023237768
:10067000F10610D5EA060ED523686FF01002204669
:100680001A6108222277DB6913F4407F4FD0FFF70D
:10069000B2FF00232377F30708D5E80706D52368C0
:1006A0006FF0010220461A6103F0E8FE16F4025FC3
:1006B00008D0290606D523686FF4025220461A6135
:1006C00000F0C1F8F20508D52B0606D523686FF4B3
:1006D000807220461A6100F0B7F8700608D56906E6
:1006E00006D523686FF0400220461A61FFF785FFA8
:1006F000B20622D5AB0620D523686FF02002204633
:100700001A61BDE8704000F09DB8FFF773FF204606
:10071000FFF772FF85E7FFF76DFF2046FFF76CFFDD
:1007200092E7FFF767FF2046FFF766FF9EE7FFF7B8
:1007300061FF2046FFF760FFABE770BD274A036803
:10074000904212D0B0F1804F0FD0A2F57C4290427F
:100750000BD002F58062904207D002F58062904291
:1007600003D002F57842904208D123F070034A6822
:10077000134323F44073CA68134316E0184A9042A7
:10078000F7D002F580629042F3D002F58062904289
:10079000EFD0A2F598329042EBD002F58062904201
:1007A000E7D002F580629042E3D04A6923F08003EB
:1007B00013438A68C2620A688262084A904203D080
:1007C00002F58062904201D10A690263026842F038
:1007D0000402026001224261036070470000014090
:1007E0000040014010B5044650B390F83D3003F08E
:1007F000FF021BB980F83C20FFF7BCFE02232068F3
:10080000211D84F83D30FFF799FF0123002084F873
:10081000483084F83E3084F83F3084F8403084F823
:10082000413084F8423084F8433084F8443084F80E
:10083000453084F8463084F8473084F83D3010BDA8
:100840000120FCE77047704770470000074903022A
:10085000CA6803F4E06322F4E0621204120C13434A
:1008600043F0BF6343F40033CB60704700ED00E01A
:10087000164B30B5DC68C4F30224C4F10703251D10
:10088000042B28BF0423062D4FF0FF358CBF033CFB
:10089000002405FA03F3002805FA04F521EA03030E
:1008A00022EA050203FA04F343EA02034FEA0313C0
:1008B000DBB206DB00F1604000F5614080F80033F8
:1008C00030BD00F00F00024A1354F9E700ED00E0DC
:1008D00014ED00E0002807DB4109012300F01F00B0
:1008E000024A834042F82130704700BF00E100E037
:1008F000BFF35F8F044B5A6A22F480325A6200229F
:10090000C3F89420704700BF00ED00E0064B40F0B4
:100910000100C3F894005A6A42F480325A62BFF36D
:100920004F8FBFF36F8F704700ED00E04378144A9C
:10093000C2F89830D2F8A03023F00103C2F8A030FA
:100940004368C2F89C30C37A017B1B0643EA0173FB
:1009500001780B43817A43EAC143417B43EA8143F7
:10096000817B43EA4143C17B43EA0143417A43EA45
:100970000123017A43EA4103C2F8A030704700BF67
:1009800000ED00E02DE9F341044640B30368DE07C3
:1009900010D423689D0761D42368190700F1A6804D
:1009A00023685A0700F1C780A269002A40F030810D
:1009B00000202CE0944B9A6802F00C02042A07D025
:1009C0009A6802F00C02082A0BD15B68590208D51C
:1009D0008D4B1B689A03DCD56368002BD9D10120AD
:1009E00015E06368884DB3F5803F13D12B6843F45D
:1009F00080332B6001F030F8834E054633689B034B
:100A0000C7D401F029F8401B6428F7D9032002B0AD
:100A1000BDE8F0819BB92B6823F480332B602B68F1
:100A200023F480232B6001F017F806462B689F0300
:100A3000AFD501F011F8801B6428F7D9E6E7B3F5CC
:100A4000A02F2B6803D143F480232B60CEE723F43F
:100A500080332B602B6823F48023CAE76A4B9A68A3
:100A600012F00C0F07D09A6802F00C02082A11D17C
:100A70005B685D020ED4644A1368990702D5E36887
:100A8000012BACD11368216923F0F80343EAC103B9
:100A9000136081E7E3685C4DBBB12B6843F0010351
:100AA0002B6000F0D9FF06462B689B0707D52B6803
:100AB000226923F0F80343EAC2032B606CE700F0DD
:100AC000CBFF801B0228EFD9A0E72B6823F001039E
:100AD0002B6000F0C1FF06462B689F077FF55CAFD7
:100AE00000F0BAFF801B0228F6D98FE76369464DF4
:100AF00083B16B6F43F001036B6700F0ADFF0646F7
:100B00006B6F9B073FF54CAF00F0A6FF801B0228E0
:100B1000F6D97BE76B6F23F001036B6700F09CFF56
:100B200006466B6F9F077FF53BAF00F095FF801B7C
:100B30000228F6D96AE7344B1A6CD50027D41A6C10
:100B4000012742F080521A641B6C03F0805301931A
:100B5000019B2E4D2B68D8051BD5A3682A4D012B70
:100B600027D12B6F43F001032B6741F2883800F047
:100B700073FF254E0546336F9A073FD5002F3FF48C
:100B800013AF214A136C23F0805313640CE7002742
:100B9000DFE72B6843F480732B6000F05DFF0646AF
:100BA0002B68D905D9D400F057FF801B6428F7D9EA
:100BB0002CE7ABB92B6F41F2883823F001032B6788
:100BC0002B6F23F004032B6700F046FF06462B6FC4
:100BD0009B07D3D500F040FF801B4045F7D915E7B0
:100BE000052B2B6F03D143F004032B67B9E723F0E8
:100BF00001032B672B6F23F00403B5E700F02CFFF4
:100C0000401B4045B7D901E7003802400070004062
:100C1000384DAB6803F00C03082B41D02B68022A37
:100C200023F080732B602ED100F016FF06462B6850
:100C3000990122D4A36A5B085A1ED4E907310B43F9
:100C400043EA0243626A43EA8213E26A43EA0263C6
:100C500043F000536B602B6843F080732B6000F00F
:100C6000FBFE244D04462B689A013FF5A1AE00F02F
:100C7000F3FE001B0228F6D9C8E600F0EDFE801B4B
:100C80000228D4D9C2E600F0E7FE04462B689B0197
:100C90007FF58EAE00F0E0FE001B0228F6D9B5E627
:100CA000012A6B683FF49BAE03F48002E1698A423B
:100CB0007FF495AE03F03F02216A8A427FF48FAE43
:100CC00047F6C072616A1A40B2EB811F7FF487AEAB
:100CD000A26A03F440315208013AB1EB024F7FF4AB
:100CE0007EAEE26A03F07063B3EB026F14BF0120C3
:100CF00000208CE600380240134908B58B6803F0E9
:100D00000C03042B1BD0082B1BD14A684B68496885
:100D100002F03F0213F48003C1F388111ABF0B489D
:100D200000230B48A1FB0001FFF772FA064B5B683A
:100D3000C3F3014301335B00B0FBF3F008BD03488C
:100D4000FCE70348FAE700BF0038024000127A00CF
:100D50000024F4002DE9F0410D46044610B90120AD
:100D6000BDE8F081454A136803F00F038B4228D396
:100D700021688F0730D4C80743D4404A136803F072
:100D80000F03AB4266D8226851076FD4130707D50B
:100D90003B4A2169936823F4604343EAC1039360AB
:100DA000FFF7AAFF364B374A9B68C3F30313D35CA4
:100DB000D840354B1860354B186803F05FFF0020B2
:100DC000CEE7136823F00F030B431360136803F09F
:100DD0000F038B42C3D1CBE711F0040F284B03D094
:100DE0009A6842F4E0529A600E0703D59A6842F47A
:100DF00060429A609A68A06822F0F00202439A600A
:100E0000B9E761681E4B01291A681BD112F4003F33
:100E1000A5D09A6841F28838194F22F003020A439C
:100E20009A6000F019FE0646BB68626803F00C0386
:100E3000B3EB820FA1D000F00FFE801B4045F3D929
:100E400003208DE7022902D112F0007FE0E712F0C3
:100E5000020FDDE7136823F00F032B4313601368C1
:100E600003F00F03AB427FF47AAF8CE70449E068EC
:100E70008B6823F4E05303438B6087E7003C024018
:100E800000380240109000080000002008000020F8
:100E9000044B054A9B68C3F38223D35C034A106862
:100EA000D840704700380240089000080000002039
:100EB000044B054A9B68C3F34233D35C034A106872
:100EC000D840704700380240089000080000002019
:100ED0000F2303600B4B9A6802F0030242609A688A
:100EE00002F0F00282609A6802F4E052C2609B68ED
:100EF000DB0803F4E0530361034B1B6803F00F03AB
:100F00000B60704700380240003C024003682DE946
:100F1000F74313F0010604460BD0AD4A916821F463
:100F200000019160466B91683143B6FA86F6760906
:100F3000916013F4002512D0A549E56BD1F88C20FF
:100F4000B5F5801F22F4401208BF012642EA0502CF
:100F500016BFB5FA85F500256D09C1F88C20D802B9
:100F600010D59B48216CD0F88C20B1F5800F22F46D
:100F7000400242EA0102C0F88C2000F0868100297C
:100F800008BF012513F0807F18BF0126990632D5CE
:100F90008F4B904F1A6C42F080521A641B6C03F016
:100FA00080530193019B3B6843F480733B6000F0E6
:100FB00053FD80463B68DA0540F16981844F226B1E
:100FC0003B6F13F4407340F06D81236B03F4407268
:100FD000B2F5407F7E4A40F08A81916823F07040EC
:100FE00021F4F81120F4407001439160C3F30B0326
:100FF000116F0B4313672368D9060CD5744AD2F8D6
:101000008C1021F08071C2F88C10D2F88C10A06B7B
:101010000143C2F88C105A0408D56D49606ED1F8AE
:10102000902022F440320243C1F890201F0408D5DA
:101030006749A06ED1F8902022F440220243C1F803
:101040009020D80308D56249E06ED1F8902022F4B0
:1010500040120243C1F89020990308D55C49206FE3
:10106000D1F8902022F440020243C1F890205A06A1
:1010700008D55749606CD1F8902022F00302024352
:10108000C1F890201F0608D55149A06CD1F89020D6
:1010900022F00C020243C1F89020D80508D54C4933
:1010A000E06CD1F8902022F030020243C1F8902089
:1010B000990508D54649206DD1F8902022F0C0024C
:1010C0000243C1F890205A0508D54149606DD1F816
:1010D000902022F440720243C1F890201F0508D5E9
:1010E0003B49A06DD1F8902022F440620243C1F840
:1010F0009020D80408D53649E06DD1F8902022F42C
:1011000040520243C1F89020990408D53049206E1E
:10111000D1F8902022F440420243C1F890205A02B4
:1011200008D52B49A06FD1F8902022F080620243AD
:10113000C1F890209F020CD52548E16FD0F890208F
:10114000B1F1006F22F0006208BF01250A43C0F828
:10115000902013F0080F18BF0125580308D51C492B
:10116000606FD1F8902022F040720243C1F89020C5
:10117000190209D51649D4F88000D1F8902022F040
:1011800080520243C1F89020012E00F0B4809A01F1
:1011900000F1B180012D76D10D4D2B6823F08053E5
:1011A0002B6000F059FC06462B689F0000F1278158
:1011B00021680E0301D5E36B1BB1CD0223D5236C4F
:1011C0000BBB034AD2F88830D2F8880004E000BF95
:1011D000003802400070004003F4403300F0E0406B
:1011E0000343606943EA8013A06943EA0063C2F8DD
:1011F0008830D2F88C30A06A23F4F853013843EADF
:101200000023C2F88C30880215D5E36FB3F1006F6C
:1012100011D1824AD2F88830D2F8880003F0706386
:1012200000F0E0400343606943EA8013206A43EA28
:101230000043C2F888300A0719D5784AD2F88810D6
:10124000D2F8883001F0706103F440330B436169D8
:1012500043EA8113E16943EA0173C2F88830D2F8A6
:101260008C30E16A23F440330B43C2F88C306B4C72
:10127000236843F08053236000F0EEFB05462368AB
:101280009B0040F1C380002009E001267AE600F0CF
:10129000E3FBA0EB080064287FF68CAE032003B0CC
:1012A000BDE8F08302F4407293423FF48EAE3B6F90
:1012B0003A6F23F4407342F480323A673A6F22F473
:1012C00080323A673B673B6FDB077FF57EAE00F00D
:1012D000C3FB41F2883980463B6F98073FF575AEF6
:1012E00000F0BAFBA0EB08004845F5D9D6E79168B5
:1012F00021F4F81179E6494E336823F080633360B6
:1013000000F0AAFB074633681B0172D42268D70796
:1013100012D5636B83B9D6F88430D6F8841003F401
:10132000403301F070610B43616843EA8113A168A7
:1013300043EA0173C6F88430160303D5E36BB3F5B3
:10134000801F05D0D0021ED5236CB3F5800F1AD1B3
:101350003249D1F88430D1F8840003F4403300F0EE
:10136000E0400343606843EA8013E06843EA0063B7
:10137000C1F88430D1F88C00636A20F01F00013B73
:101380000343C1F88C30D10111D52449D1F8843000
:10139000D1F8840003F0706300F0E040034360681C
:1013A00043EA8013206943EA0043C1F88430920184
:1013B0000DD5236962681B0443EA8213E26843EA9D
:1013C0000263A26843EA0273144AC2F88430134EDF
:1013D000336843F08063336000F03EFB07463368B8
:1013E0001B013FF5D7AE00F037FBC01B6428F6D9D0
:1013F00054E700F031FBC01B642884D94EE700F0AD
:101400002BFB801B64287FF6CFAE47E700F024FB60
:10141000401B64287FF633AF40E700BF003802402E
:101420002DE9F74F0023DFF8BC916C4A01240D68C9
:101430009C4004EA0506AC4340F0B7804D680327A2
:101440004FEA430E05F0030407FA0EFC671E6FEA2D
:101450000C0C012F34D8876807EA0C08CF6807FA0C
:101460000EF747EA08078760476827EA0608C5F3CA
:1014700000179F4047EA08074760C768022C07EA41
:101480000C088F6807FA0EF747EA0807C76019D1FA
:101490004FEAD30803F0070A4FF00F0B00EB880860
:1014A0004FEA8A0AD8F820700BFA0AFB27EA0B0BDE
:1014B0000F6907FA0AF747EA0B07C8F8207001E03E
:1014C000032CDAD1076804FA0EF415F4403F07EA5A
:1014D0000C0744EA0704046067D0D9F8444023F0BD
:1014E000030703F0030C4FF00F0E44F4804407F1A0
:1014F00080474FEA8C0CC9F8444007F59C37D9F86F
:1015000044400EFA0CFE04F480440194019CBC6833
:1015100024EA0E0E324CA0424ED004F58064A04264
:101520004CD004F58064A0424AD004F58064A04207
:1015300048D004F58064A04246D004F58064A042FF
:1015400044D004F58064A04242D004F58064A042F7
:1015500040D004F58064A0423ED004F58064A042EF
:1015600014BF0A24092404FA0CF415F4801F44EA79
:101570000E04BC606FEA060794680CBF3C4034431D
:1015800015F4001F9460D4680CBF3C40344315F43C
:10159000003FD46054680CBF3C403443ED035460BA
:1015A000146854BF3C40344314600133102B7FF463
:1015B0003DAF03B0BDE8F08F0024D4E70124D2E7AB
:1015C0000224D0E70324CEE70424CCE70524CAE7AD
:1015D0000624C8E70724C6E70824C4E7003C014006
:1015E00000000240003802400369194214BF012084
:1015F00000207047036802461820D9B21039B1FBA9
:10160000F0F010B5054C5F29205CD06523F47F70A5
:1016100020F0030088BF0430906510BD20900008C2
:1016200070B5044600F018FA0546002C60D002237D
:10163000226884F83530002384F83430136823F0AE
:101640000103136022681368D8072ED41368324848
:10165000A1691840D4E901352B43E5682B4325697E
:101660002B4365692B43E5690B432B43256A2B43C9
:101670000343606A042802BFD4E90B5635432B4369
:1016800004281360536923F0070343EA000335D1AC
:10169000A06AE56A03438DB391B9012820D030F0E8
:1016A00002012BD1E90129D51DE000F0D5F9401B3D
:1016B0000528C7D920230320636584F8350070BD51
:1016C000B1F5005F16D1032818D801A151F820F018
:1016D000E7160008A5160008E7160008E11600083E
:1016E000B5F1C07F0AD140236365002384F835300B
:1016F0000120E4E70228F6D90328D3D0536120461D
:10170000FFF778FFE26D3F239340836000200123C1
:10171000606584F83530D2E73F8010F070B590F8FE
:101720003440866D012C34D0012480F8344090F888
:101730003540012C4FF0000429D1022580F83550A6
:1017400044650468256825F4802525606360836806
:10175000402B19D1A260E160C26D3F239340B3607A
:10176000236843F016032360636943F080036361D9
:10177000036C1BB1236843F0080323602368002037
:1017800043F00103236070BDA160E260E4E780F8EC
:1017900034400220F7E770B50446866D00F05CF92E
:1017A000054694F83530022B06D08023012063656E
:1017B000002384F8343070BD23681A6822F01602C2
:1017C0001A605A6922F080025A61226C0AB9A26C2E
:1017D0001AB11A6822F008021A601A6822F001028F
:1017E0001A602368186810F0010007D1E26D3F23EA
:1017F0009340B360012384F83530D9E700F02CF929
:10180000401B0528EDD920230320636584F83500AB
:10181000CEE790F83530022B03D0802343650120BA
:1018200070470268052380F835300020136823F0E4
:1018300001031360704700000023F7B501930822ED
:101840005B4B0446856D1F68C36D2E689A4032421B
:101850000CD001680868400708D5086820F004002B
:101860000860AA60626D42F00102626501229A403E
:10187000324208D021684969090604D5AA60626D20
:1018800042F00202626504229A40324208D0216886
:101890000968880704D5AA60626D42F00402626597
:1018A00010229A40324210D02368196809070CD5DB
:1018B000AA601A68500337D51B68190301D4236C3A
:1018C00000E0A36C0BB120469847E16D20228A40CE
:1018D00032423AD023681868C60636D5AA6094F812
:1018E0003520052A1A6827D122F016021A605A6993
:1018F00022F080025A61226C0AB9A26C1AB11A68ED
:1019000022F008021A603F238B40AB60012384F869
:101910003530002384F83430236D002B45D0204629
:1019200003B0BDE8F04018471A68D205C7D41A685A
:1019300022F008021A60C2E7500327D51B6819037A
:1019400031D4636C0BB120469847636D6BB3636D04
:10195000DA0719D54FF416532268B7FBF3F70523BE
:1019600084F83530136823F001031360019B0133C1
:10197000BB42019302D81368DB07F7D4012384F834
:101980003530002384F83430E36CC6E71A6812F46B
:10199000807208D1196821F010011960012384F8C0
:1019A000342084F83530E36BCCE703B0F0BD00BFE2
:1019B00000000020406D7047194B37B51A6C194C68
:1019C00042F080521A641B6C03F080530193019B18
:1019D000236843F48033236000F03EF805466368D3
:1019E000DA030CD523680F4D43F40033236000F075
:1019F00033F804466B689B030AD5002006E000F02C
:101A00002BF8401BB0F57A7FE9D9032003B030BD35
:101A100000F022F8001BB0F57A7FEBD9F5E700BFA4
:101A2000003802400070004008B50320FEF70EFFAA
:101A30000F2003F023F903F003F9002008BD000094
:101A4000034A044B11681B780B441360704700BFB6
:101A5000BC00002004000020014B1868704700BF44
:101A6000BC000020026852E8003F23F4907342E873
:101A7000003102680029F5D102F1080353E8003F64
:101A800023F0010302F1080C4CE800310029F3D1E6
:101A9000036E012B07D152E8003F23F0100342E808
:101AA00000310029F7D12023C0F8803000230366DD
:101AB00083667047026852E8003F23F0800342E8E3
:101AC000003102680029F5D152E8003F43F040039D
:101AD00042E800310029F7D17047C26F0346212A3E
:101AE00011D1B0F8522092B20AB9FFF7E3BFC26C2D
:101AF000016812F8010B8862DA64B3F85220013AE7
:101B000092B2A3F852207047C26F0346212A13D124
:101B1000B0F8522092B20AB9FFF7CCBFDA6C006875
:101B200032F8021BC1F308018162DA64B3F8522073
:101B3000013A92B2A3F85220704700000346C06FEA
:101B4000202822D119B312B3A3F85220A3F85020B1
:101B50000022D964C3F884202122DA679A68B2F59A
:101B6000805F10D118690B4A0B49002818BF0A463C
:101B7000DA66196851E8002F42F0800241E800203F
:101B80000028F6D17047044AF2E70220704701208E
:101B9000704700BF091B0008DB1A0008F8B50446AF
:101BA0001346E56F202D30D1E1B1DAB1A4F852200F
:101BB0000026A4F850202122206FC4F88460E1643C
:101BC000E267226880B1124F2832C763114F076461
:101BD000114FC0E91376FFF7A1FD28B11023C4F817
:101BE0008430E5670120F8BD402223681A6222682C
:101BF00002F1080353E8003F43F0800302F10801BB
:101C000041E800300028F3D1EDE70220EBE700BF08
:101C1000BF1C0008071D0008131D000810B504466E
:101C2000226852E8003F23F4907342E800312368B1
:101C30000029F5D103F1080252E8002F22F0010239
:101C400003F1080040E800210029F3D1226E012AA7
:101C500007D153E8002F22F0100243E800210029A9
:101C6000F7D19A6852061BD503F1080252E8002FFB
:101C700022F0400203F1080040E800210029F3D1DE
:101C8000606F68B10165FFF786FD48B1606FFFF7CF
:101C900091FE202804D110230320C4F8843010BD05
:101CA000236800200F22A4F85A001A629A6942F0B1
:101CB00008029A612023C4F880302066EFE708B557
:101CC0000346806BDB69B3F5807F18D00023A0F852
:101CD0005230026802F1080353E8003F23F080030A
:101CE000083242E8003102680029F2D152E8003F90
:101CF00043F0400342E800310029F7D108BD03F06A
:101D00006BFFFBE77047806B08B5FFF7FBFF08BD73
:101D10007047806B0368C26FD0F8801010B59C6864
:101D200024060ED5212A0CD10022A0F8522053E817
:101D3000002F22F0C00243E80024002CF7D120221B
:101D4000C2679B685B0606D5222904D10023A0F850
:101D50005A30FFF787FED0F8843043F01003C0F804
:101D6000843003F04DFF10BD08B5806B0023A0F850
:101D70005A3003F045FF08BD70470000036870B596
:101D8000DA6940F60F061968044632429D680BD1A5
:101D9000960640F188808D0640F18580836E002B89
:101DA0007BD0BDE87040184705F00100964D0D400E
:101DB000054378D0D60709D5CD0507D501251D6285
:101DC000D4F8845045F00105C4F88450960708D52E
:101DD00038B102251D62D4F8845045F00405C4F8DA
:101DE0008450550708D538B104251D62D4F88450B5
:101DF00045F00205C4F8845016070BD501F0200504
:101E0000054307D008201862D4F8840040F0080089
:101E1000C4F8840015050AD5480108D54FF40060C0
:101E20001862D4F8843043F02003C4F88430D4F826
:101E30008430002B31D0920605D58B0603D5A36ED6
:101E40000BB12046984726682046D4F88420B36812
:101E500002F0280203F0400353EA02051ED0FFF708
:101E600001FEB3685E0615D5226802F1080353E847
:101E7000003F23F04003083242E800310029F3D14B
:101E8000606F38B1614B0365FFF7C3FC28B1606F29
:101E9000036D86E7204603F0B3FE70BD03F0B0FE8D
:101EA000C4F88450F9E7206E012840F08D80D506F3
:101EB00040F18A80C80640F1878010221A62996832
:101EC000B4F85820490651D5606F0168496889B255
:101ED000002942D0914240D2C269A4F85A10B2F50A
:101EE000807F2ED053E8002F22F4807243E8002137
:101EF0000029F7D103F1080252E8002F22F0010275
:101F000003F1080040E800210029F3D103F10802A1
:101F100052E8002F22F0400203F1080040E80021BF
:101F20000029F3D12022C4F88020216653E8002F35
:101F300022F0100243E800210029F7D1606FFFF77B
:101F40002AFC0223B4F858106366B4F85A30C91A50
:101F500089B22046FFF710FF9FE791429DD1C369E8
:101F6000B3F5807F99D102236366F2E7B4F85A1083
:101F7000B4F85A0089B280B200288ED0511A89B2C2
:101F800000298AD053E8002F22F4907243E8002001
:101F90000028F7D103F1080252E8002F22F00102D5
:101FA00003F1080545E800200028F3D12022A066AF
:101FB000C4F88020206653E8002F22F0100243E886
:101FC00000200028F7D1CEE7160607D50D0605D567
:101FD000E36E002B3FF461AF2046E2E650067FF54A
:101FE0005CAF4A067FF559AF53E8002F22F040025C
:101FF00043E800210029F7D120232046E166E3676A
:1020000003F0EAFD49E700BF20010004691D000854
:10201000D0F88020B0F85C10222A08B5036852D1AD
:102020005B6A426D0B401370436D01334365B0F83A
:102030005A30013B9BB2A0F85A30B0F85A309BB2EC
:10204000002B3FD1026852E8003F23F4907342E82E
:10205000003103680029F5D103F1080252E8002F8E
:1020600022F0010203F1080C4CE800210029F3D111
:1020700020228166C0F8802041665A68110205D48A
:10208000026E012A0BD003F0CDFD1BE053E8002FB8
:1020900022F0806243E800210029F7D1F0E7002216
:1020A000026653E8002F22F0100243E800210029C5
:1020B000F7D1DA69D20601D510221A62B0F85810A9
:1020C000FFF75AFE08BD9A6942F008029A61F9E7E3
:1020D000D0F88020B0F85C10222A08B503684FD1F0
:1020E0005A6A1140426D22F8021B4265B0F85A202C
:1020F000013A92B2A0F85A20B0F85A2092B2002ABF
:102100003DD153E8002F22F4907243E800210029CA
:10211000F7D103F1080252E8002F22F0010203F187
:10212000080C4CE800210029F3D120228166C0F878
:10213000802041665A68110205D4026E012A0BD034
:1021400003F070FD1BE053E8002F22F0806243E8AB
:1021500000210029F7D1F0E70022026653E8002FA2
:1021600022F0100243E800210029F7D1DA69D206F3
:1021700001D510221A62B0F85810FFF7FDFD08BD16
:102180009A6942F008029A61F9E7012208B503460C
:10219000806B4266026E012A12D1B0F858101B689B
:1021A0004A08A0F85A205B689BB2994201D3A0F874
:1021B0005A30B0F85A30C91A89B2FFF7DDFD08BDB0
:1021C000FFF7A6FDFBE70246806BD369B3F5807F7E
:1021D00010B532D00023A0F85A30016851E8003F12
:1021E00023F4807341E800340368002CF5D103F137
:1021F000080151E8001F21F0010103F1080C4CE82F
:102200000014002CF3D103F1080151E8001F21F064
:10221000400103F1080C4CE80014002CF3D12021FC
:10222000C0F88010016E012907D153E8001F21F08A
:10223000100143E80014002CF7D100234366016E1F
:10224000012911D1A0F85A301368B0F858105B6812
:102250009BB2994201D9A0F85A30B0F85A30C91A45
:1022600089B2FFF789FD10BD03F0DCFCFBE700003D
:1022700038B50446C0692169A26823680A436169C8
:102280001D680A436E4902432940256A0A43E168F2
:102290001A605A6822F440520A435A60A269996847
:1022A0002A4321F430610A439A60664A934213D16B
:1022B000654BD3F8903003F00303022B00F0A580A8
:1022C000032B00F09C80012B67D0B0F5004F00F08D
:1022D0009080FEF7EDFD12E05C4A934226D15A4B06
:1022E000D3F8903003F00C03082B00F08E8016D842
:1022F000002B52D1B0F5004F76D0FEF7C9FD002873
:1023000075D0626800EB5203B3FBF2F34FF6EF7245
:10231000A3F11001914204D82268D36067E00C2B2E
:102320006DD001200023C4E91A3338BD484A9342D6
:1023300009D1454BD3F8903003F03003202B64D003
:10234000D6D9302BECE7434A934209D13E4BD3F820
:10235000903003F0C003802B57D0C9D9C02BDFE7E2
:102360003D4A93420BD1384BD3F8903003F440737D
:10237000B3F5007F49D0BBD9B3F5407FD0E7374AEA
:10238000934213D1304BD3F8903003F44063B3F54C
:10239000006F3AD007D8002B97D0B0F5004F2BD163
:1023A000FEF7AAFC22E0B3F5406FB9E72C4A93424E
:1023B0000BD1254BD3F8903003F44053B3F5005FB5
:1023C00023D095D9B3F5405FAAE7264A9342A8D116
:1023D0001D4BD3F8903003F44043B3F5004F14D0B5
:1023E00086D9B3F5404F9BE7FEF752FD90B9002028
:1023F00098E7FEF75DFDF9E7FEF77EFC7FE7B0F5B5
:10240000004F07D04FF400407BE7B0F5004F16486F
:102410007FF477AF6268530803EB4003B3FBF2F33A
:102420004FF6EF72A3F1100191423FF67AAF23F01D
:102430000F02C3F34203216892B21343CB60D6E785
:10244000F369FFEF001001400038024000440040F3
:1024500000480040004C0040005000400014014083
:1024600000780040007C00400024F400436A1A0712
:1024700010B506D50168446B4A6822F40042224335
:102480004A60DC0706D50168846A4A6822F4003293
:1024900022434A60990706D50168C46A4A6822F453
:1024A000803222434A605A0706D50168046B4A68A5
:1024B00022F4802222434A60DC0606D50168846B40
:1024C0008A6822F4805222438A60990606D5016800
:1024D000C46B8A6822F4005222438A605A0610D5DF
:1024E0000168046C4A68B4F5801F22F4801242EA45
:1024F00004024A6005D14A68446C22F4C0022243B7
:102500004A601B0606D50268816C536823F40023D9
:102510000B43536010BD2DE9F843DDF820900446CD
:102520000D46174698462268D36935EA03030CBF67
:1025300001230023BB4201D0002022E0B9F1FF3F7C
:10254000F2D0FFF789FAA0EB0800484529D8B9F185
:10255000000F26D021680B685A07E4D5802DE2D001
:10256000402DE0D0CE6916F008060CD00825204694
:102570000D62FFF777FA00230120C4F8845084F835
:102580007830BDE8F883CB691B05CCD54FF40063E8
:1025900020460B62FFF766FA202384F87860C4F8BF
:1025A00084300320EDE737B500250446C0F8845099
:1025B000FFF752FA22680346126812071AD56FF025
:1025C0007E424FF40011204600922A46FFF7A3FFF7
:1025D00080B1226852E8003F23F0800342E80031D6
:1025E0000029F6D120230320E367002384F8783004
:1025F00003B030BD20230020E367C4F8803020669C
:102600006066F2E710B5044640B3C36F1BB980F8AB
:10261000783002F0BDF824232268E367136823F0C2
:1026200001031360636A13B12046FFF71FFF2046C2
:10263000FFF71EFE012811D0236820465A6822F4B5
:1026400090425A609A6822F02A029A601A6842F010
:102650000102BDE810401A60FFF7A5BF012010BDC0
:10266000A0F858200023A0F85A2082684165B2F5EE
:10267000805F83662CD10369002B40F2FF1318BFE3
:10268000FF23A0F85C300023C0F884302223C0F878
:102690008030026802F1080353E8003F43F0010371
:1026A000083242E8003102680029F2D181680369EA
:1026B000B1F5805F27D1DBB1154B836652E8003F4F
:1026C00043F4907342E800310029F7D100207047AD
:1026D0002AB90369002B0CBFFF237F23D1E7B2F196
:1026E000805FCED10369002B0CBF7F233F23C8E757
:1026F000084B836652E8003F43F0200342E8003174
:102700000029F7D1E2E702498166002BF2D0D5E734
:1027100011200008D1200008D0F88030202B30B4E0
:1027200012D1A1B19AB100230468036663681B0249
:1027300007D554E8003F43F0806344E80035002D9E
:10274000F7D130BCFFF78CBF022030BC70470120AE
:10275000FBE7000070B51346A0F85820002204469D
:102760004165C0F8842022202568C4F88000606F8D
:10277000A0B11C4EC6631C4E06641C4EC0E9136219
:102780000A4605F12401FEF7C9FF38B110230120E4
:10279000C4F884302023C4F8803070BD22692368D7
:1027A0003AB153E8002F42F4807243E80021002937
:1027B000F7D103F1080252E8002F42F0010203F1C1
:1027C000080040E800210029F3D103F1080252E893
:1027D000002F42F0400203F1080141E800200028E8
:1027E000F3D1DAE7C72100088B210008131D000888
:1027F000D0F88030202B30B412D1A1B19AB100238F
:102800000468036663681B0207D554E8003F43F081
:10281000806344E80035002DF7D130BCFFF79ABF44
:10282000022030BC70470120FBE700F108034FF0A5
:10283000FF3243600361C0E9022300230360704755
:1028400000230361704743689A684B608A60516057
:1028500099600368086101330360704730B50C6804
:10286000631C0AD103695A684A6091608B605960A1
:10287000036808610133036030BD00F108021346AC
:1028800052681568A542FAD9EDE70369D0E901124B
:102890008A6051605968814208BF5A600022026113
:1028A0001A68013A1A601868704710B5044601F0BA
:1028B00029FCA46B01F04AFCB4FA84F0400910BD75
:1028C00070B51646026C0446856B42B906689EB91F
:1028D000806800F0A3FFA6600135A56370BD6EB9E6
:1028E000406806F077FB6368226C1344A268934249
:1028F000636024BF236863600020EDE7C06806F0D2
:1029000069FB226CE36851429B1A22689342E360A0
:102910003EBFA3685B18E360022EEDD10DB1013D0F
:10292000EAE72846D8E7034608461A6C10B462B1B5
:10293000DC68996814448C42DC605DF8044B24BF69
:102940001968D960D96806F045BB5DF8044B70473B
:1029500070B5044601F0D6FB94F8455004F1240606
:102960006DB2002D01DD636AB3B9FF2304F11006D7
:1029700084F8453001F0EAFB01F0C4FB94F84450C0
:102980006DB2002D01DD23697BB9FF2384F844304B
:10299000BDE8704001F0DABB304600F099FE08B1A6
:1029A00000F026FF013D6DB2DBE7304600F090FEFF
:1029B00008B100F01DFF013D6DB2E2E738B50D46EC
:1029C000044650B94FF0500372B683F31188BFF339
:1029D0006F8FBFF34F8F62B6FEE701F093FB226863
:1029E000D4E90F3162604B43D0185B1AA0601A44DF
:1029F0000020FF23E260A06384F8443084F845306F
:102A0000A5B9236973B104F1100000F061FE48B16B
:102A10004FF0E0234FF08052C3F8042DBFF34F8FE7
:102A2000BFF36F8F01F092FB012038BD04F110005D
:102A3000FFF7FBFE04F12400FFF7F7FEF2E737B5DE
:102A40000D461C4653B94FF0500372B683F31188FC
:102A5000BFF36F8FBFF34F8F62B6FEE75AB1B1B9C4
:102A60004FF0500372B683F31188BFF36F8FBFF33B
:102A70004F8F62B6FEE751B14FF0500372B683F349
:102A80001188BFF36F8FBFF34F8F62B6FEE75023FD
:102A90000193019B502B0AD04FF0500372B683F381
:102AA0001188BFF36F8FBFF34F8F62B6FEE701212E
:102AB000002D08BF2246019B84F846102260C4E91D
:102AC0000F052046FFF77AFF9DF81830204684F85E
:102AD0004C3003B030BD10B49DF8044050B94FF0F5
:102AE000500372B683F31188BFF36F8FBFF34F8F1C
:102AF00062B6FEE701945DF8044BFFF7A0BF2DE935
:102B0000FF410F461E460446019250B94FF0500354
:102B100072B683F31188BFF36F8FBFF34F8F62B626
:102B2000FEE761B9036C53B14FF0500372B683F303
:102B30001188BFF36F8FBFF34F8F62B6FEE7022E8F
:102B40000DD1E36B012B0AD04FF0500372B683F323
:102B50001188BFF36F8FBFF34F8F62B6FEE700F0AF
:102B60004DFE054620B300254FF0000801F0CAFADB
:102B7000A26BE36B9A4229D2324639462046FFF7D0
:102B80009FFE636A1BB104F1240000F0A1FD48B16F
:102B90004FF0E0234FF08052C3F8042DBFF34F8F66
:102BA000BFF36F8F01F0D2FA012004B0BDE8F081CD
:102BB000019B002BD8D04FF0500372B683F31188DD
:102BC000BFF36F8FBFF34F8F62B6FEE7022ED3D0F5
:102BD000019B1BB901F0BAFA0020E6E715B902A87B
:102BE00000F0BAFD01F0B2FA00F086FB01F08AFABB
:102BF00094F84430FF2B01D184F8448094F8453098
:102C0000FF2B01D184F8458001F0A0FA01A902A8A8
:102C100000F0AEFD38BB01F075FAA26BE36B9A428F
:102C20000ED101F093FA019904F1100000F014FDA7
:102C30002046FFF78DFE00F00DFC48B1012595E719
:102C400001F084FA2046FFF783FE00F003FCF5E76D
:102C50004FF0E0234FF08052C3F8042DBFF34F8FA5
:102C6000BFF36F8FEAE72046FFF772FE00F0F2FB3A
:102C7000B2E72DE9F843894617461E46044650B987
:102C80004FF0500372B683F31188BFF36F8FBFF319
:102C90004F8F62B6FEE761B9036C53B14FF050033A
:102CA00072B683F31188BFF36F8FBFF34F8F62B695
:102CB000FEE7022E0DD1E36B012B0AD04FF050033B
:102CC00072B683F31188BFF36F8FBFF34F8F62B675
:102CD000FEE701F013FBEFF311884FF0500372B6DB
:102CE00083F31188BFF36F8FBFF34F8F62B6A26B70
:102CF000E36B9A4201D3022E1DD194F8455032461F
:102D0000494620466DB2FFF7DBFD6B1C0ED1636AAE
:102D10003BB104F1240000F0DBFC10B10FB1012342
:102D20003B60012088F31188BDE8F88301356DB25E
:102D300084F84550F5E70020F4E72DE9FF410E4601
:102D40000446019250B94FF0500372B683F31188D4
:102D5000BFF36F8FBFF34F8F62B6FEE761B9036CAD
:102D600053B14FF0500372B683F31188BFF36F8FE6
:102D7000BFF34F8F62B6FEE700F040FD054618B383
:102D800000254FF0000801F0BDF9A76B57B3013FD4
:102D900031462046FFF7C7FDA763236973B104F1ED
:102DA000100000F095FC48B14FF0E0234FF0805246
:102DB000C3F8042DBFF34F8FBFF36F8F01F0C6F937
:102DC000012004B0BDE8F081019B002BD9D04FF069
:102DD000500372B683F31188BFF36F8FBFF34F8F29
:102DE00062B6FEE7019B1BB901F0B0F90020E8E7ED
:102DF00015B902A800F0B0FC01F0A8F900F07CFAC7
:102E000001F080F994F84430FF2B01D184F844801C
:102E100094F84530FF2B01D184F8458001F096F9F4
:102E200001A902A800F0A4FC00BB2046FFF73DFD6D
:102E3000B0B1019904F1240000F00EFC2046FFF728
:102E400087FD00F007FB48B94FF0E0234FF08052B8
:102E5000C3F8042DBFF34F8FBFF36F8F012592E7A7
:102E60002046FFF775FD00F0F5FAF7E72046FFF77B
:102E70006FFD00F0EFFA2046FFF717FD0028EDD0B8
:102E8000B4E770B504460D46164601F03BF994F8D8
:102E90004430FF2B02D1002384F8443094F84530AD
:102EA000FF2B02D1002384F8453001F04FF9A36BCA
:102EB0002BB93246294604F1240000F0E9FB2046F4
:102EC000BDE87040FFF744BD2DE9F041044601F034
:102ED00019F92F4B2F4E1A682F4F01321A6035689F
:102EE000002D4AD134601B68012B1FD1B846013533
:102EF0004046FFF79AFC08F11408382DF7D1DFF8A7
:102F0000C080264D4046FFF790FC2846FFF78DFC19
:102F10002348FFF78AFC2348FFF787FC2248FFF786
:102F200084FC224BC3F80080214B1D60214A1368AA
:102F300001331360204A63641168E36A8B4200D94D
:102F400013601420211D00FB0370FFF77CFC01F0CF
:102F5000FDF81A4B1B6873B13368DA6AE36A9A4268
:102F600009D24FF0E0234FF08052C3F8042DBFF395
:102F70004F8FBFF36F8FBDE8F081104B1A68E36A83
:102F8000002AD3D13268D26A9A42CFD83460CDE7D2
:102F9000E4000020B8050020580100203001002086
:102FA0001401002000010020E80000202C01002076
:102FB00028010020C8000020DC000020D8000020EC
:102FC00044010020F8B5154B0646154D0F461C6808
:102FD00028680430FFF759FC731C07D137B1296802
:102FE00010480431BDE8F840FFF72DBCA4192B6848
:102FF0005C6007D30C4B18682968BDE8F8400431C1
:10300000FFF72CBC094B186829680431FFF726FC30
:10301000074B1A68A24200D91C60F8BDE0000020EE
:10302000B8050020E8000020280100202C01002025
:10303000C4000020064A13681968064B19B94FF0FE
:10304000FF321A6070471268D268D2685268F8E797
:103050002C010020C400002010B590F8593004461F
:103060003BB9006B00F0A6FF2046BDE8104000F021
:10307000A1BF012BF9D0022B0AD04FF0500372B63A
:1030800083F31188BFF36F8FBFF34F8F62B6FEE7F4
:1030900010BD000080B5134C134F144D236873B955
:1030A000134B1B68012BF8D94FF0E0234FF08052EF
:1030B000C3F8042DBFF34F8FBFF36F8FEDE701F01F
:1030C00021F8FB68DE68301DFFF7DFFB2B68013B52
:1030D0002B602368013B236001F038F83046FFF78E
:1030E000BBFFDBE7FC00002000010020E400002023
:1030F000580100202DE9F047960007460D46A5210E
:1031000032469846043EDDE90994206B05F016FF2F
:10311000236B1E4426F00706A5B36B1E04F1330291
:103120000F3513F8011F02F8011F09B1AB42F8D1A6
:10313000002384F84330089D4FF0000A201D372DEE
:10314000C4F850A028BF3725E562E564C5F138050D
:10315000FFF776FB04F11800FFF772FBC4F854A0E8
:103160004246394630462461A561646284F858A01D
:1031700000F09EFF2060B9F1000F01D0C9F80040B7
:10318000BDE8F08784F83450D5E770B586B0DDE946
:103190000B5455B94FF0500372B683F31188BFF347
:1031A0006F8FBFF34F8F62B6FEE754B94FF05003F5
:1031B00072B683F31188BFF36F8FBFF34F8F62B680
:1031C000FEE75C260596059E5C2E0AD04FF0500364
:1031D00072B683F31188BFF36F8FBFF34F8F62B660
:1031E000FEE725630225059E84F8595004AD02943C
:1031F00001950A9D0095FFF77DFF2046FFF764FECD
:10320000049806B070BD2DE9F043074685B09000E4
:1032100088461646994600F039FE054620B94FF01B
:10322000FF3005B0BDE8F0835C2000F02FFE0446BF
:1032300098B1002305633246414680F859300D9B12
:103240000290384601930C9B00934B46FFF752FFC8
:103250002046FFF739FE0120E3E7284600F0AAFEEA
:10326000DDE7000010B588B0002407AA06A905A86C
:10327000CDE9054400F0CCFD059B079A0293069B1F
:1032800018491948CDE900432346FFF77EFF38B3BC
:1032900000F056FB012816D14FF0500372B683F3AD
:1032A0001188BFF36F8FBFF34F8F62B60F4B4FF094
:1032B000FF321A600E4B18600E4B1C6008B0BDE860
:1032C000104000F0B9BF01300AD14FF0500372B680
:1032D00083F31188BFF36F8FBFF34F8F62B6FEE7A2
:1032E00008B010BD2890000895300008C4000020E8
:1032F000D8000020E0000020024A13680133136068
:10330000704700BFC0000020014B1868704700BF25
:10331000E000002008B500F0F1FF014B186808BD7F
:10332000E0000020404B1B682DE9F74F002B73D1C4
:103330003E4B1C6801341C60CCB93D4B1A681268C6
:1033400052B14FF0500372B683F31188BFF36F8F01
:10335000BFF34F8F62B6FEE7364A196810681860EF
:103360001160354A136801331360FFF763FE334D74
:103370004FF0000B324E2B68324FA34211D93A68FE
:103380001421D26A4A43B258022A28BF4FF0010BD7
:103390002D4A1268002A0CBF5846012003B0BDE830
:1033A000F08FDFF88C90DFF8A8A0D9F80020126821
:1033B0001AB94FF0FF322A60E1E7D9F80020D2684D
:1033C000D2F80C80D8F804108C4201D22960D6E7DC
:1033D00008F1040318460193FFF757FAD8F82810AC
:1033E00019B108F11800FFF750FAD8F82C00DAF8F4
:1033F0000010884201D9CAF800001423019903FB88
:103400000060FFF720FA3868D8F82C10C26A9142A1
:1034100028BF4FF0010BC8E70C4A4FF0000B1368B0
:1034200001331360B4E700BFC0000020E0000020BB
:103430002C01002028010020CC000020C400002026
:1034400058010020B8050020D0000020D400002042
:10345000DC0000202DE9F041314C236853B94FF0D6
:10346000500372B683F31188BFF36F8FBFF34F8F92
:1034700062B6FEE700F046FE2368013B2360246845
:103480002CB1002400F062FE2046BDE8F081254BFF
:103490001B68002BF5D0244D244EDFF8A0801DE0E2
:1034A000EB68DC68271D04F11800FFF7EEF93846D9
:1034B000FFF7EBF9E36A3268934200D933601420D6
:1034C000394600FB0380FFF7BEF9194BE26A1B681F
:1034D000DB6A9A4202D3174B01221A602B68002B39
:1034E000DED10CB1FFF7A6FD134D2C6844B1114E8F
:1034F0000127FFF717FF00B13760013CF9D12C60BD
:103500000C4B1B68002BBCD04FF0E0234FF08052D7
:10351000C3F8042DBFF34F8FBFF36F8F0124B1E7C2
:10352000C0000020E400002014010020DC00002086
:10353000B8050020D0000020D40000205801002051
:1035400010B550B94FF0500372B683F31188BFF332
:103550006F8FBFF34F8F62B6FEE751B94FF0500344
:1035600072B683F31188BFF36F8FBFF34F8F62B6CC
:10357000FEE7194B1B6853B14FF0500372B683F34B
:103580001188BFF36F8FBFF34F8F62B6FEE7FFF76F
:10359000B3FE124B04681A6863182CBF0121002186
:1035A00094420FD979B90360FFF754FF48B94FF03F
:1035B000E0234FF08052C3F8042DBFF34F8FBFF3C9
:1035C0006F8F10BD09B99A42EDD203600021981A9D
:1035D000FFF7F8FCE8E700BFC0000020E000002093
:1035E000184B1A68184B70B512B101221A6070BDE1
:1035F000164D14261A6016492A6806FB02F3CC58A9
:10360000C8188CB14468083364680B449C42446019
:1036100004BF63684360142303FB02114B68D9683D
:103620000C4B19602A60E2E752B94FF0500372B6B2
:1036300083F31188BFF36F8FBFF34F8F62B6FEE73E
:10364000013ADAE7C0000020D0000020DC000020B2
:1036500058010020B805002010B50C4650B94FF0B5
:10366000500372B683F31188BFF36F8FBFF34F8F90
:1036700062B6FEE7054B19681831FFF7EFF82046F0
:103680000121BDE81040FFF79DBC00BFB805002038
:1036900038B50D46144650B94FF0500372B683F357
:1036A0001188BFF36F8FBFF34F8F62B6FEE7074BF2
:1036B00019681831FFF7C7F8002C21460CBF2846BF
:1036C0004FF0FF30BDE83840FFF77CBCB805002064
:1036D00038B5C368DC6854B94FF0500372B683F351
:1036E0001188BFF36F8FBFF34F8F62B6FEE704F10F
:1036F00018052846FFF7C9F8114B1B68D3B9251DDB
:103700002846FFF7C2F80F4AE36A11688B4200D9D6
:10371000136014200C4A294600FB0320FFF793F89E
:103720000A4BE26A1B68DB6A9A4206D90120084B01
:10373000186038BD29460748F0E70020F9E700BFC8
:10374000C0000020DC00002058010020B805002047
:10375000D000002014010020034B1B680360034BC2
:103760001B684360704700BFCC000020E0000020D1
:1037700070B50C46054650B94FF0500372B683F34E
:103780001188BFF36F8FBFF34F8F62B6FEE751B959
:103790004FF0500372B683F31188BFF36F8FBFF3FE
:1037A0004F8F62B6FEE700F0ADFC0F4B196823683F
:1037B0005A1C10D00D482E6800686A68864201D0F5
:1037C0008A420FD9881A83420AD95B1A28461344C1
:1037D0002360FFF7C1FF002400F0B8FC204670BD55
:1037E000002323600124F7E7E0000020CC00002044
:1037F000014B01221A607047D0000020054B1B6866
:1038000033B1054B1868B0FA80F0400940007047AA
:1038100001207047D8000020C000002038B508B94A
:10382000002038BD1D4B1C6884420AD04FF0500365
:1038300072B683F31188BFF36F8FBFF34F8F62B6F9
:10384000FEE7236D53B94FF0500372B683F311882E
:10385000BFF36F8FBFF34F8F62B6FEE7E16A013BA4
:10386000E26C23659142DBD0002BD9D1251D28467F
:10387000FFF70BF8E36CC3F13802E362A261084A78
:1038800011688B4200D91360064A1420294600FBB8
:103890000320FEF7D8FF0120C3E700BFB8050020D2
:1038A000DC00002058010020914208B54160006111
:1038B0000AD8D21A83699A420DD2011D074B1868A3
:1038C000FEF7CCFF002008BD9A4201D2994202D2F5
:1038D000011D034BF3E70120F5E700BFB806002008
:1038E000BC060020F7B50F4C00F00CFC25689DB914
:1038F0000D4F0E4E3846FEF798FF3046FEF795FF07
:103900000B4B0C4A10211F600A200B4B1E600B4B07
:103910000095FFF7E0F8206003B0BDE8F04000F04C
:1039200015BC00BFB4060020D4060020C00600204D
:10393000BC0600200C060020B8060020BC050020B4
:1039400010B588B0FFF7CEFF134B1B68B3B100244E
:1039500007AA06A905A8CDE9054400F065FA059B6C
:10396000079A0293069B0D49019302230C4800938A
:103970002346FFF70AFC0B4B186050B94FF0500379
:1039800072B683F31188BFF36F8FBFF34F8F62B6A8
:10399000FEE7012008B010BDB40600202D900008FD
:1039A000A93A0008B00600207FB5164604461A461C
:1039B00050B94FF0500372B683F31188BFF36F8F85
:1039C000BFF34F8F62B6FEE70C4D286878B105292A
:1039D0000294CDE900160CDCFFF710FF002302284B
:1039E000694628680CBF089A1A46FFF788F804B0A1
:1039F00070BD00236946FFF73CF9F8E7B4060020E4
:103A00002DE9F347DFF89C800646FFF77DFC05466D
:103A1000D8F80030834209D9204F3B681A686AB948
:103A20001F4A116813600123396000E00023284613
:103A30003360C8F8005002B0BDE8F087DB68DC688E
:103A4000D3F8009004F1040A5046FEF71EFF236AE3
:103A50002046984794F828305B07DED5A3694B448D
:103A6000994506D25146386863602461FEF7F6FE38
:103A7000D3E700234A46204619460093FFF794FFF8
:103A80000028CAD14FF0500372B683F31188BFF3F8
:103A90006F8FBFF34F8F62B6FEE700BFBC060020FA
:103AA000B8060020AC0600202DE9F043714D89B026
:103AB000714E2B68D3F80080B8F1000F37D0DB6867
:103AC0000024D3F80080FFF717FC04A8FFF798FF45
:103AD000049B8146002B6BD1002C4ED1404552D324
:103AE000FFF7B8FC2B68DB68DF68381DFEF7CDFEFA
:103AF00097F8283058071CD5B96943464A463846D6
:103B00004144FFF7D1FEC0B1234642462146384624
:103B10000094FFF749FF80B94FF0500372B683F36A
:103B20001188BFF36F8FBFF34F8F62B6FEE701249A
:103B3000C9E723F0010387F828303B6A38469847E5
:103B4000002204A93068FFF7F8F80028B1D0049BE0
:103B50000698002B2FDB069C6369002B32D103A84B
:103B6000FFF74EFF049B0246092BE9D8DFE803F07C
:103B70002E2E2E59607A2E2E5960404B1B681C68E1
:103B8000B4FA84F464092246A8EB09013068FFF70F
:103B900078F9FFF75FFC0028D2D14FF0E0234FF017
:103BA0008052C3F8042DBFF34F8FBFF36F8FC7E769
:103BB000FFF750FCC4E7059B07999847049B002B2F
:103BC000BEDBC8E7201DFEF760FEC8E794F828308A
:103BD0002046A16943F0010384F82830059B19446D
:103BE000FFF762FE0028ABD0236A2046984794F87E
:103BF00028305907A4D5A2690023059920460093CF
:103C00000A441946FFF7D0FE002899D14FF050031F
:103C100072B683F31188BFF36F8FBFF34F8F62B615
:103C2000FEE794F8283023F0010384F8283087E772
:103C300094F8283043F0010384F828300599A161F5
:103C400051B94FF0500372B683F31188BFF36F8FF1
:103C5000BFF34F8F62B6FEE7034601442046FFF7ED
:103C600023FE6DE794F828309A07DCD4204600F054
:103C7000A1F965E7BC060020B4060020B8060020C4
:103C8000EFF3058313B16FF005007047EFF3108277
:103C9000074B12B9EFF3118212B11A68022AF2D05F
:103CA000186810B901221A6070474FF0FF30704752
:103CB000A013002008B5EFF3058313B16FF00500E2
:103CC00008BDEFF310820A4B12B9EFF3118212B163
:103CD0001A68022AF2D01A68012A05D102221A6053
:103CE000FFF7C0FA0020EBE74FF0FF30E8E700BF36
:103CF000A0130020EFF305830BB1FFF70BBBEFF32D
:103D0000108313B9EFF311831BB1034B1B68022B14
:103D1000F3D0FFF7F9BA00BFA01300204FF47A7078
:103D200070470000F0B5144687B000220B4605929C
:103D3000EFF305824ABBEFF3108212B9EFF3118261
:103D40001AB1204A1268022A1FD0F0B15CB3A569EB
:103D500025B16A1E372A02D9002017E018256268AB
:103D6000D207F9D466699EB1B2082168D4E9027C11
:103D70008FB1BCF15B0F08D9246934B12EB1009525
:103D8000CDE90147FFF701FA0590059807B0F0BDAE
:103D90004FF48072E9E7BCF1000FF6D12469002CE2
:103DA000F3D10C4602E018254FF4807205A992B2B7
:103DB000CDE900512146FFF726FA01281CBF002358
:103DC0000593E2E7A013002013B50446EFF3058343
:103DD0001BB16FF0050002B010BDEFF3108313B9F3
:103DE000EFF311831BB1094B1B68022BF1D0FFF7D6
:103DF0008BFA211A0190002904DD01A8FFF7A0FB2E
:103E00000020E8E76FF00300E5E700BFA013002003
:103E1000034B0360034B0B604FF4807313607047D8
:103E200044130020440F0020034B0360034B0B603E
:103E30004FF4007313607047E80E0020E80600207E
:103E4000104B10B51A461B688342FBD354681119F6
:103E5000884201BF41681046091951604468011940
:103E60008B420CD1084909688B4203D05968214420
:103E7000416019689042016018BF106010BD19467A
:103E8000F8E700BFB4130020B01300202DE9F04183
:103E90000446FFF731FA4149414D0B680BBB414ADB
:103EA0005607414E1BBFD01D02F500424FF40043A0
:103EB00020F007001CBF131A024600201344326092
:103EC0007060083B23F00703C3E90000981A0B60F9
:103ED000C2E90030354B1860354B18604FF0004395
:103EE0002B602E68264254D1002C43D004F10803E5
:103EF00060071CBF23F007030833002B49D02C4F69
:103F00003C689C4245D3284A15686868984204D2A8
:103F1000D5F800C0BCF1000F17D10968A94238D00C
:103F20002968D2F800801160C21A102A14D9E81842
:103F300041070DD04FF0500372B683F31188BFF3E1
:103F40006F8FBFF34F8F62B6FEE72A466546DCE708
:103F500042606B60FFF774FF6A6800231349A41A7C
:103F6000164308683C6084426E602B6038BF0C606A
:103F700008F10804FFF76EFA63070CD04FF0500306
:103F800072B683F31188BFF36F8FBFF34F8F62B6A2
:103F9000FEE70024EEE72046BDE8F081B0130020E4
:103FA000A4130020BC130020B4130020A813002089
:103FB000AC13002010B50446002832D0194A50F83E
:103FC000043C126813420AD14FF0500372B683F3D7
:103FD0001188BFF36F8FBFF34F8F62B6FEE750F8C3
:103FE000081C51B14FF0500372B683F31188BFF330
:103FF0006F8FBFF34F8F62B6FEE723EA020340F8EC
:10400000043CFFF779F9084A54F8043CA4F108008D
:1040100011680B441360FFF713FFBDE81040FFF772
:1040200019BA10BDA4130020AC1300200848006882
:10403000006880F308884FF0000080F3148862B6AF
:1040400061B6BFF34F8FBFF36F8F00DF00BF00007B
:1040500008ED00E0DFF80C00016841F47001016038
:104060007047000088ED00E0002382B001930F4B01
:104070001B6801330AD04FF0500372B683F31188E6
:10408000BFF36F8FBFF34F8F62B6FEE74FF0500361
:1040900072B683F31188BFF36F8FBFF34F8F62B691
:1040A000019B002BFCD002B0704700BF0C00002029
:1040B0004FF0807321F0010140F8202C4438036454
:1040C000034BC16383636FF002030362704700BF59
:1040D000694000080000000000000000000000002F
:1040E000074B19680868B0E8F04F80F30988BFF300
:1040F0006F8F4FF0000080F311887047AFF300809E
:10410000B80500204FF0500372B683F31188BFF357
:104110006F8FBFF34F8F62B60B4A13680133012BC9
:10412000136010D14FF0E023D3F8043DDBB253B15C
:104130004FF0500372B683F31188BFF36F8FBFF354
:104140004F8F62B6FEE770470C000020094A1368E3
:1041500053B94FF0500372B683F31188BFF36F8FDA
:10416000BFF34F8F62B6FEE7013B13600BB983F3D9
:10417000118870470C0000200000000000000000C3
:10418000EFF30980BFF36F8F154B1A681EF0100F05
:1041900008BF20ED108A20E9F04F10602DE90900DA
:1041A0004FF0500072B680F31188BFF34F8FBFF30A
:1041B0006F8F62B6FFF714FA4FF0000080F311889A
:1041C00009BC19680868B0E8F04F1EF0100F08BF6E
:1041D000B0EC108A80F30988BFF36F8F704700BF7F
:1041E000B805002008B54FF0500372B683F311886C
:1041F000BFF36F8FBFF34F8F62B6FFF793F828B10D
:104200004FF0E0234FF08052C3F8042D002383F3D6
:10421000118808BD4FF0E02200234FF47A7113613A
:104220009361044B1B68B3FBF1F3013B536107231C
:1042300013617047000000202C4B37B51A78D2B2BA
:104240000192FF221A701B78294ADBB28DF80330E5
:104250009DF8033003F0500313700723254A1360C1
:104260009DF80310136809060CD4032B13D04FF0EC
:10427000500372B683F31188BFF36F8FBFF34F8F74
:1042800062B6FEE7013B13609DF803305B00DBB2D2
:104290008DF80330E4E74FF440734FF0E02400253D
:1042A0001360019B114ADBB21370D4F8203D43F434
:1042B0007003C4F8203DD4F8203D43F07043C4F8A7
:1042C000203DFFF7A7FF0C4B1D60FFF7C3FED4F89E
:1042D000343F43F04043C4F8343FFFF7A7FEFFF7F5
:1042E0007FF92846FFF7C0FE03B030BD00E400E0D0
:1042F000C0930020BC9300200C000020EFF3058346
:104300000F2B10D9134A9B5C134A12789A420AD990
:104310004FF0500372B683F31188BFF36F8FBFF372
:104320004F8F62B6FEE74FF0E0230C4AD3F80C3D06
:10433000126803F4E06393420AD94FF0500372B657
:1043400083F31188BFF36F8FBFF34F8F62B6FEE721
:10435000704700BFF0E300E0C0930020BC93002052
:1043600010B594B01022002102240AA804F0E6FD42
:104370001422002103A804F0E1FD204B01210420B8
:104380001A6C42F080521A641B6C03F08053019344
:10439000019B1B4B1A6842F440421A601B6803F4ED
:1043A00040430293029B4FF48033CDE908134FF44E
:1043B0008003CDE90E43D823CDE9100308A8CDE949
:1043C0001244FCF7DFFA08B172B6FEE7FDF7F4FA23
:1043D00008B172B6FEE70F234FF4A05205900721F3
:1043E00003A8CDE903344FF48053CDE90623FCF74D
:1043F000B1FC08B172B6FEE714B010BD003802403F
:10440000007000401FB500211022684604F096FDA0
:10441000FCF76EFA012300226846ADF8003048F23E
:104420001F73CDE9012340F201130393FCF77EFAD9
:104430000420FCF76BFAFDF7F7FAFFF791FF00F0A5
:1044400029F800F0ABF800F02BF900F065F900F066
:1044500045F900F0CBF800F0E7F800F003F900F0C0
:1044600079F901F0E9FB08B972B6FEE7FFF708FC3D
:1044700000F084F8FFF71EFCFEE700000268034B23
:104480009A4201D1FDF7DCBA704700BF001000402E
:1044900072B6FEE7244B00211A6B42F0800200B591
:1044A0008DB01A631A6B08A802F080020192019A7B
:1044B0001A6B42F002021A631A6B02F002020292B5
:1044C000029A1A6B42F001021A631A6B02F001029F
:1044D0000392039A1A6B42F004021A631A6B02F0F9
:1044E00004020492049A1A6B42F008021A631A6BCF
:1044F00002F008020592059A1A6B42F010021A6344
:1045000010221B6B03F010030693069B04F016FDAC
:10451000032307A90548079301230993FCF780FFAC
:104520000DB05DF804FB00BF00380240000C0240F3
:1045300038B5FFF7F3FBC728054605D9C822B0FBFD
:10454000F2F302FB13030BB1FFF7A2FFC823B5FB85
:10455000F3F5FFF7CFFB04462C4401F099FF20460A
:10456000FFF732FC0028F7D001F08AFFFFF7C2FB0B
:104570002C182046FFF728FCEEE7000008B5044A97
:1045800000210448FFF7CEFB034B186008BD00BFB5
:10459000B090000831450008C4930020124B07B5C5
:1045A0001A6B05210C2042F400121A6300221B6BC7
:1045B00003F400130193019BFCF75AF90C20FCF75C
:1045C00089F9002205210E20FCF752F90E20FCF794
:1045D00081F9002205211020FCF74AF9102003B0D0
:1045E0005DF804EBFCF776B90038024008B50C48DA
:1045F0004FF4E1330B4AC0E9002300230C22C0E949
:10460000023303614362C0E90523C0E90733FDF7C4
:10461000F9FF18B1BDE80840FFF73ABF08BD00BF79
:1046200018980020004C004008B50C484FF4E133C6
:104630000B4AC0E9002300230C22C0E902330361C6
:104640004362C0E90523C0E90733FDF7DBFF18B17A
:10465000BDE80840FFF71CBF08BD00BF90970020D1
:104660000050004008B50C484FF4E1330B4AC0E954
:10467000002300230C22C0E9023303614362C0E936
:104680000523C0E90733FDF7BDFF18B1BDE80840B9
:10469000FFF7FEBE08BD00BF08970020007C004069
:1046A00008B50C484FF4E1330B4AC0E9002300235E
:1046B0000C22C0E9023303614362C0E90523C0E96B
:1046C0000733FDF79FFF18B1BDE80840FFF7E0BED4
:1046D00008BD00BF809600200010014008B50C48BE
:1046E0004FF416530B4AC0E9002300230C22C0E903
:1046F000023303614362C0E90523C0E90733FDF7D4
:1047000081FF18B1BDE80840FFF7C2BE08BD00BF79
:10471000F89500200044004008B50C484FF4612390
:104720000B4AC0E9002300230C22C0E902330361D5
:104730004362C0E90523C0E90733FDF763FF18B101
:10474000BDE80840FFF7A4BE08BD00BF709500207B
:104750000048004008B50C484FF4E1330B4AC0E96B
:10476000002300230C22C0E9023303614362C0E945
:104770000523C0E90733FDF745FF18B1BDE8084040
:10478000FFF786BE08BD00BFE8940020001401407A
:10479000F0B5B7B005461422002110A804F0CEFBF6
:1047A0008422002115A804F0C9FB2A688F4B9A4285
:1047B00031D14FF4006315A81593FCF7A7FB08B19E
:1047C000FFF766FE8A4BC02100248A485A6C42F0EB
:1047D00020025A645A6C02F020020192019A1A6B6C
:1047E00042F004021A631B6B03F004030293029B62
:1047F0000223CDE91013032310A9CDE912430823A6
:104800001493FCF70DFE472022460621FCF730F8F2
:104810004720FCF75FF82B68774A934235D14FF475
:10482000007315A8159300232993FCF76FFB08B1BB
:10483000FFF72EFE6E4B4FF4406E002410A91A6C49
:104840006C4842F400221A641A6C02F400220392AB
:10485000039A1A6B42F004021A631B6B03F0040301
:104860000493049B0223CDE910E30323CDE9124313
:1048700008231493FCF7D4FD342022460621FBF7CD
:10488000F7FF3420FCF726F8ADE05C4A934246D1AE
:104890004FF4806315A8159300232A93FCF736FB89
:1048A00008B1FFF7F5FD524B0024022703261A6CCE
:1048B000082510A94F4842F480121A641A6C02F4B9
:1048C00080120592059A1A6B42F004021A631A6B61
:1048D00002F004020692069A1A6B42F008021A636A
:1048E0001B6B149503F008030793079B4FF4805349
:1048F000CDE91246CDE91037FCF792FD042310A94B
:104900003F481495CDE91037CDE91246FCF788FDF4
:10491000352022460621FBF7ABFF3520B2E7394AA6
:10492000934231D14FF4005315A8159300232D93D2
:10493000FCF7ECFA08B1FFF7ABFD2D4B002410A9F2
:1049400031481A6C42F000421A641A6C02F00042BC
:104950000892089A1A6B42F010021A6302221B6B2B
:1049600003F010030993099B0323CDE91032CDE92D
:10497000124308231493FCF753FD532022460621CB
:10498000FBF776FF53207DE7204A934242D1402334
:1049900015A8159300232693FCF7B8FA08B1FFF782
:1049A00077FD134B4FF4C064002510A95A6C1848CA
:1049B00042F010025A645A6C02F010020A920A9AEB
:1049C0001A6B42F001021A631B6B03F001030B9395
:1049D0000B9B0223CDE910430323CDE91253072398
:1049E0001493FCF71DFD37B0F0BD00BF001401406B
:1049F0000038024000080240004C004000500040D7
:104A0000000C0240007C00400010024000100140F9
:104A1000000002405E4A93424BD1802315A81593B3
:104A200000232793FCF772FA08B1FFF731FD594BC9
:104A3000002610A958481A6C584C42F400321A64E7
:104A40001A6C02F400320C920C9A1A6B42F00802B3
:104A50001A6360221B6B03F008030D930D9B022366
:104A6000CDE910230323CDE9126307231493FCF748
:104A7000D7FC4FF000634A492046A6616662C4E94C
:104A800000134FF48063C4E904364FF48073C4E923
:104A90000266C4E90736FCF7C3FD08B1FFF7F8FC6E
:104AA0002620002205216C67A563FBF7E1FE262086
:104AB000E8E63C4A934296D14FF4807315A81593CB
:104AC00000232893FCF722FA08B1FFF7E1FC314BF1
:104AD0004FF44060002610A91A6C334C42F4802237
:104AE000324F1A641A6C02F480220E920E9A1A6BDC
:104AF00042F002021A631B6B03F002030F930F9B39
:104B00000223CDE9100303232948CDE912630723CB
:104B10001493FCF785FC4FF000634FF4807C204633
:104B2000A6616662C4E900734FF48063C4E9043689
:104B30004FF40033C4E90266C4E907C3FCF770FD13
:104B400008B1FFF7A5FC1B4A4FF000636C674021DA
:104B5000A563194CC4E9002300234FF4806220466A
:104B6000C4E904234FF40032C4E90213C4E9063354
:104B7000C4E90823FCF754FD08B1FFF789FC27209E
:104B8000002205212C67A563FBF772FE272079E63A
:104B90000044004000380240000C0240889400208D
:104BA00088600240004800402894002028600240AD
:104BB0000004024058600240C8930020FEE7FEE770
:104BC000FEE7FEE7FEE770470148FCF735BE00BF91
:104BD000289400200148FCF72FBE00BFC893002096
:104BE0000148FCF729BE00BF889400200148FDF76A
:104BF000C5B800BFF89500200148FDF7BFB800BF59
:104C0000709500200148FDF7B9B800BF1898002042
:104C10000148FDF7B3B800BF909700200148FBF7AB
:104C2000EDBC00BFA09800200148FDF7A7B800BF69
:104C3000089700200148FDF7A1B800BFE8940020C4
:104C40000D4B82B00F216FF001001A6C42F08052C0
:104C50001A641A6C02F080520092009A5A6C42F464
:104C600080425A6400225B6C03F480430193019BF1
:104C700002B0FBF7FDBD00BF00380240214B1A6CAB
:104C800042F0100270B588B01A641B6C054601A989
:104C900003A803F010030293029BFCF719F9069B8B
:104CA0004BBBFCF7F5F8184E184B336040F2E73376
:104CB000F360174BB0FBF3F3013B30467360002306
:104CC0003361B360B361FBF78DFD044680B93046B4
:104CD000FBF752FC044658B93620FBF7FBFD0F2DBD
:104CE0000DD8224629463620FBF7C2FD094B1D6030
:104CF000204608B070BDFCF7CBF84000D3E7012494
:104D0000F6E700BF00380240A098002000100040E5
:104D100040420F0008000020DFF834D0FBF720FCF1
:104D20000C480D490D4A002302E0D458C450043306
:104D3000C4188C42F9D30A4A0A4C002301E01360DC
:104D40000432A242FBD304F019F9FFF75BFB704772
:104D50000000052000000020A0000020BC940008F6
:104D6000A000002088A10020FEE70000134AD2F82E
:104D7000FC3043F08073C2F8FC30114B114AC3F889
:104D8000B02FBFF34F8FBFF36F8F00225A601A68A6
:104D900042F001021A60BFF34F8FBFF36F8F586864
:104DA00000BF00BF00BF00BF00BF00BF00BF00BF0B
:104DB0005B68C01A18BF0120704700BF00ED00E01B
:104DC000001000E055CEACC5214A224B10B5224C54
:104DD000944233D09C4231D0A2EB030CDCF10000B2
:104DE00040EB0C00196F09B1C96909B140F020000E
:104DF0001A494969C903516848BF40F04000B1F5FC
:104E0000165F596818BF40F00400B1F5612F516F6B
:104E100018BF40F0020099B940F0080010499142D3
:104E200003D0994201D0A14201D140F001004B686A
:104E3000B3F5E13F18BF40F0800010BD0120D1E77D
:104E4000C969B1F5807F18BF40F01000E6E700BFE8
:104E5000F8950020709500209097002000ED00E06C
:104E60001898002010B52DED068BF0EE408A302208
:104E70000021B0EE60AAB0EE419A0446B0EE618A1D
:104E800004F05CF8B0EEE87ADFED387AB4EE677AD9
:104E9000F1EE10FA67D8B0EECA7AB4EE677AF1EEA6
:104EA00010FA60D8B0EEC97AB4EE677AF1EE10FA73
:104EB00059D8B0EEC87AB4EE677AF1EE10FA52D84B
:104EC000F5EEC08AF1EE10FA4DD9B5EEC0AAF1EEBA
:104ED00010FA48D9B5EEC09AF1EE10FA43D9B5EE02
:104EE000C08AF1EE10FA3ED9B7EE007ADFED209AD3
:104EF000B1EE000AC4ED008A84ED078AC7EE097A94
:104F0000C7EE086A28EE800A77EEA67A67EEA97ADD
:104F100080EE270A03F0F8F8C0FE4A0A0120C4ED2B
:104F2000010A207660EEA99A39EE099A38EE088ACD
:104F3000C9EE897A89EE887AC4ED027A84ED047A22
:104F400077EE877AB6EE007A27EE607AE7EE878A08
:104F50009FED087AC8EEA07AC7FE877AC4ED037A7F
:104F6000BDEC068B10BD0020FAE700BFFFFF7F7F7E
:104F7000DB0F49400000000038B5037E04462DEDEC
:104F80000A8BB0EE408A9FED7AAAB0EE419AF0EE1D
:104F9000618AF0EE42AADBB3B0EEC07ADFED757A3B
:104FA000B4EE677AF1EE10FA32D8B4EECA0AF1EE36
:104FB00010FA2DD9B0EEE07AB4EE677AF1EE10FA7D
:104FC00026D8B0EEC17AB4EE677AF1EE10FA1FD8A7
:104FD000B0EEE17AB4EE677AF1EE10FA18D8B0EEDE
:104FE000C27AB4EE677AF1EE10FA11D8B4EECA2A9A
:104FF000F1EE10FA0CD490ED00BAF6EE00BA3BEEEA
:1050000060BAB4EEEBBAF1EE10FA06D800230376DC
:105010009FED570ABDEC0A8B38BDD0ED057AD0ED77
:10502000019A70EE277A90ED020AF4EEC07AC0ED94
:10503000057AF1EE10FA40F190809FED4F7A67EE1D
:10504000877A87EE800A03F07DF8B7EE007A69EE82
:10505000AB7A37EE407A67EE877A94F8283094ED91
:10506000076A63BBC9FE281AC1FE8A1AF5EEC01A88
:10507000F1EE10FA74DD9FED407AF1EE006A88FEE1
:105080002A8A28EE218A21EE877A26EE266A27EEE2
:10509000217AC7EE066A36EE887AB4EECB7AF1EE64
:1050A00010FA5DDB3BEE488A0123C4ED091A84F84F
:1050B000283088FE2B8AC4ED0B1A84ED088AD4EDC3
:1050C000087AB7EE008A1425DFED298ACBEE27AAED
:1050D000DFED29CAB0EE48CA78EE6AAACAFEC8AAAD
:1050E000CAFE8AAA38EE88BA2BEE2BBA2BEE2C0A0F
:1050F00003F06CF8C0EE2C7A77EE8B7AF4EEEA7A55
:10510000F1EE10FA58BFB0EE4B8A48BFF0EE4B8A72
:10511000013DE7D138EE880A89FE0AAA20EE2C0A62
:1051200020EE2B0A03F00EF8D4ED097A30EE0C0ACB
:1051300067EEAB7AB1EE047A67EE807A94ED0B0AF3
:1051400089FEC77A8AFE07AAC7FE877AC7FECA7A8F
:1051500080FE670A84ED0B0A5CE7F0EE697A7CE773
:10516000B1EE040A89FEC00A80FE270A52E700BF9A
:1051700000000000FFFF7F7FDB0F494083680133A1
:105180008360437BFF2B1CBF0133437300230373F6
:105190007047000038B52DED068BB0EEC0AADFEDEC
:1051A000379AF0EE408A0546B0EE608AB4EE69AAFE
:1051B000B0EE419AF1EE10FA26D8F0EEE07AF4EE75
:1051C000697AF1EE10FA1FD89FED2D7AF4EEC77AC6
:1051D000F1EE10FA94BF01240024AB7BB3B9B4EE16
:1051E00069AA2046F1EE10FA9EBF0123C5ED008AA0
:1051F000AB73002C3AD16B6801336B604FF4407392
:10520000AB81BDEC068B38BD0024E6E795ED000AC6
:10521000DFED1C0A38EEC00A02F058FF002CDED089
:105220009FED197AB4EEC79AF1EE10FA1CDB9FEDF0
:10523000177AB4EEC79AF1EE10FA15D828EE098A5B
:10524000F5EE006AB2EE007AB0EEC86A70EE487A07
:10525000A6EE267AF0EEE77AF4EEC77AF1EE10FACF
:1052600094BF01240024BAE70024B8E700236B733D
:105270002B7B042B9CBF01332B73C2E7FFFF7F7F87
:10528000000034440000B4438FC2753CEC51383EFA
:10529000427B0346022A07D8807B30B11B7B052B5B
:1052A00034BF01200220704700207047B0EEC07A62
:1052B000DFED127AB4EE677ADFED117AB6EE007A9E
:1052C000F1EE10FA48BFB0EE670AD0ED007AE0EEDA
:1052D000017AC7FEC77ABEEE007AC7FE877AC0EDB4
:1052E000007A67EE827AE0EE217AE2EEE07AC7FE9B
:1052F000C37AB1EE433A83FE270A7047FAEDEB39E1
:1053000000000000B5EEC00A00B5F1EE10FA2DED78
:10531000048BF0EE419A87B0B0EE618AF0EE428ADB
:10532000B0EE629A1CD9F5EEC00AF1EE10FA17D968
:1053300003A902F013FEDDED047AF5EE407AF1EEFA
:1053400010FA29FE888A27EE880ADDED037A20EE1E
:10535000090AA7EEA80A07B0BDEC048B5DF804FBB0
:105360009FED010AF7E700BF00000000B5EEC00A9C
:1053700010B5F1EE10FA0C462DED088BF0EE419AC7
:105380008AB0F0EE61AAF0EE428AB0EE62AAB0EE08
:1053900043BAB0EE639A40D9F5EEC00AF1EE10FAC6
:1053A0003BD9F5EEC03AF1EE10FA36D9DFED1E7AB0
:1053B000F4EEE73AF1EE10FA2FDC02F0CFFD94EDB7
:1053C000018AB0EE690AB5EE408AF1EE10FA6AFE83
:1053D000A88A02F0B7FE28EE288AD4ED00AAF0EEE3
:1053E000408AB0EE690A02F0F1FE28EE0B1AB0EE28
:1053F000407A68EE407A68EE880AAAEE8A1AE8EEE9
:10540000AA7AEAEE870A21EE091A27EE890A60EEE7
:10541000890A0AB0BDEC088B10BD9FED040AF0EEBE
:10542000400AB0EE401AF4E7CDCC4C3D000000003D
:10543000064B93F870202AB1596C054A1160996C9B
:10544000044A1160002283F870207047F49800200D
:10545000F0980020EC98002010B5102200240021C4
:10546000114803F06BFD114B7822214610481C6057
:1054700003F064FD4FF4807221460E4803F05EFD98
:105480000D4B0E481C800E4B1C600E4B1C60436F76
:1054900043B14FF480720749FDF7AAF9B0FA80F0E2
:1054A000400910BD1846FCE7849A0020809A00202D
:1054B000F4980020809900206C990020F895002035
:1054C000F0980020EC980020BE4B2DE9F0475D6F6E
:1054D0002DED028B84B045B12B685D68C5F58075F4
:1054E000ADB2B5F5807F28BF0025B74CB74FB84E99
:1054F000A4F85A503B88AB4206D8EA1A92B2012A65
:1055000040F20681194609E0C3F580722A4492B23E
:10551000012A40F2FD80FF2BF4D9D9B2715C5529E4
:1055200009D001339BB2FF2B88BFDBB23B80236DD8
:1055300001332365DEE70A2A40F2EA8001AA03F17B
:105540000B00944680B21146FF2B8CBF5FFA83FE9E
:105550009E46013316F80EE09BB20CF801EB984220
:10556000F2D10023184612F801CB013063440A2817
:10557000DBB2F8D19DF80E209A420DD0E36C95482D
:105580000133E364FFF7FAFD3B8801339BB2FF2B45
:1055900088BFDBB23B80ADE78F4B07C9D3F80480EF
:1055A0008E4B03C323F8022B120C1A709DF80530A2
:1055B000522B84F8673032D0532B59D0512B40F006
:1055C000A380BDF908309FED866A07EE103ABDF959
:1055D0000A30C4F82C8007EE903ABDF90630B8EED8
:1055E000C77A06EE903AF8EEE77A0123F8EEE66A1B
:1055F00084F8383027EE067A236C67EE867A66EEFA
:10560000866A013384ED017AC4ED027AC4ED006A42
:105610002364E36B0133E3633B880B33B6E7BDF9E7
:1056200008309FED706A07EE103ABDF90A30C4F8F1
:10563000308007EE903ABDF90630B8EEC77A06EE34
:10564000903AF8EEE77A0123F8EEE66A84F839300A
:1056500027EE067A636C67EE867A66EE866A013319
:1056600084ED047AC4ED057AC4ED036A6364D0E77F
:10567000BDF90A305C4A08EE103AA36ADFED5B8A96
:105680000133B8EEC88AD4ED050AA362136828EE88
:10569000288A5048A8EB0303BDF806A0B0EE480ADC
:1056A000BDF8089007EE903A514B84ED098A93EDCE
:1056B000001AF8EE677AC2F80080B8EE411A87EE59
:1056C000811AFFF767FD0028A3D00FFA8AF384ED53
:1056D000088AC4F8348007EE903A0FFA89F3F8EE9E
:1056E000E77A67EEA87AC4ED067A07EE903A0123CE
:1056F000F8EEE77A84F83A30A36C67EEA87A0133C3
:10570000C4ED077AA36484E7636D0133636580E7C2
:1057100094F87160A4F858302F4B84F87060586882
:1057200094F83930CBB9FFF783FE2A4D94F87030E6
:10573000284684F87130FFF7ABFD6B68C0B2636731
:1057400094F8703084F87200834288BF84F8700047
:1057500004B0BDEC028BBDE8F08794F83A30002B22
:10576000E1D0234B4FF47A78656BD3F80090236B2C
:10577000451B4A46C01A0023A0FB0801FAF748FD62
:105780004A46A06607460023A5FB0801FAF740FD3C
:10579000E0664EB9174B626C1B689A42C5D9164B2E
:1057A000A26C1B689A42C0D9502F05D8502805D842
:1057B000022384F87030B8E7B42FB4D8B428B2D834
:1057C0000123F6E7F8950020F49800206C9900205A
:1057D00080990020849A0020001000E05099002059
:1057E0000000003A00007A3D809A00200000B43B9F
:1057F00000000020F0980020EC980020004870473E
:10580000F498002030B5002A94B240F6B8354371C0
:105810002246B8BF64424FF001030170B8BFA4B282
:10582000F621D20B8371AC424FF06B03417028BF5D
:105830002C468270C37104EB84046500C4F3C71462
:105840000571C47030BD00230370FF2343706623CD
:1058500083706B23C37070472DE9F84305469DF8AC
:105860002080002840D0002A3ED0EBB324293BD929
:10587000561E9C1ED71C41F27079A446304610F883
:1058800001EF0EF1FF33DBB2F62B2DD83CF8021FEF
:1058900001F6B83189B2494526D8134683421FD153
:1058A000BB42ECD1AA234FF00009281D6B702523C1
:1058B00085F8009085F80290EB7016F8011F4346BA
:1058C00034F9022FFFF79EFFBE4280F8069000F1E8
:1058D0000800F2D16B23252085F82430BDE8F88339
:1058E00013F8011B8E45D9D10020F7E7054B84B092
:1058F000D3ED010AD3ED027A93ED000A70EEA70A08
:1059000004B070471000002080FEC00AF1EE600A6B
:1059100080FE800A704700002A4A1368C31A07EE07
:10592000903A294B93ED007AF8EE677AB8EE477A11
:1059300010B5C7EE873ADFED257A86B01060F4EE39
:10594000E73AF1EE10FA3ADCDFED217AF4EE673A4D
:10595000F1EE10FA33D81F4AFFF7C8FF1E4C1F4B59
:1059600092ED003A04F114011D4A04F1200093ED78
:105970000C2AD3ED0B1AD2ED002A94ED021AFFF790
:10598000F5FC184B8DED030A1B7ECDED040A33B1F7
:10599000154BD3ED007A31EE271A83ED001AD4EDC2
:1059A000007A9DED037A77EE877A9DED047AC4ED57
:1059B000007AD4ED017A77EE877AC4ED017A06B0E9
:1059C00010BD00BF809B002000000020CDCC4C3DCE
:1059D000FFFF7F7F149C00208C9C00201000002083
:1059E000189C0020389C0020009C0020774B70B54C
:1059F00093F83D20012A00F2E780D3ED005ADFED55
:105A0000747AB0EEE57AB4EE677AF1EE10FA00F24D
:105A1000DB8093ED016AB0EEC67AB4EE677AF1EE00
:105A200010FA00F2D180D3ED026AB0EEE67AB4EE5D
:105A3000677AF1EE10FA00F2C78093ED037AB0EEC8
:105A4000C75AB4EE675AF1EE10FA00F2BD80F5EED7
:105A5000C05AF1EE10FA40F2B780B5EEC06AF1EE2E
:105A600010FA40F2B180F5EEC06AF1EE10FA40F2A1
:105A7000AB80F7EE006AB4EEE67AF1EE10FA00F1D0
:105A8000A380DFED546AB4EEE67AF1EE10FA00F38B
:105A90009B80D3ED045AB0EEE57AB4EE677AF1EE6E
:105AA00010FA00F2918093ED056AB0EEC67AB4EE7A
:105AB000677AF1EE10FA00F28780D3ED066AB0EE55
:105AC000E67AB4EE677AF1EE10FA7DD893ED077AB4
:105AD000B0EEC75AB4EE675AF1EE10FA74D8F5EE8C
