:020000040800F2
:100000000000052035860008F1830008F983000808
:100010000184000809840008118400080000000021
:100020000000000000000000000000003174000823
:10003000198400080000000041760008A976000835
:100040008586000885860008858600088586000864
:100050008586000885860008858600088586000854
:100060008586000885860008858600088586000844
:1000700029840008858600083D84000885860008DC
:10008000518400088586000885860008858600085A
:100090008586000885860008858600088586000814
:1000A0008586000885860008858600088586000804
:1000B00085860008858600088586000885860008F4
:1000C00085860008858600088586000885860008E4
:1000D0008586000885860008658400087984000804
:1000E00085860008858600088586000885860008C4
:1000F00085860008858600088586000885860008B4
:1001000085860008858600088586000885860008A3
:100110008D840008A1840008B58400088586000845
:100120008586000885860008858600088586000883
:100130008586000885860008858600088586000873
:100140008586000885860008858600088586000863
:10015000858600088586000885860008DD840008FD
:100160008586000885860008858600088586000843
:100170008586000885860008858600088586000833
:10018000858600088586000885860008C9840008E1
:100190008586000885860008858600088586000813
:1001A0008586000885860008858600088586000803
:1001B00085860008858600088586000885860008F3
:0801C000858600088586000811
:1001D00010B5054C237833B9044B13B10448AFF381
:1001E00000800123237010BDA0000020000000004B
:1001F000DCEE000808B5034B1BB103490348AFF31D
:10020000008008BD00000000A4000020DCEE000813
:1002100053B94AB9002908BF00281CBF4FF0FF316D
:100220004FF0FF3000F088B9ADF1080C6DE904CE55
:1002300000F006F8DDF804E0DDE9022304B07047C1
:100240002DE9F047089D8E4604468846002B4AD18A
:100250008A42174662D9B2FA82F64EB1C6F120033D
:1002600001FA06F820FA03F3B74043EA0808B4405D
:100270004FEA174E1FFA87FCB8FBFEF1230C0EFB6A
:10028000118843EA084301FB0CF29A4209D9FB1892
:1002900001F1FF3080F0EA809A4240F2E7800239B3
:1002A0003B449A1AA3B2B2FBFEF00EFB102243EAC3
:1002B000024300FB0CFC9C4509D9FB1800F1FF32FE
:1002C00080F0D6809C4540F2D3803B44023840EA1F
:1002D0000140A3EB0C0300211DB1F3400022C5E94E
:1002E0000032BDE8F0878B4205D90DB1C5E90001A8
:1002F00000210846F5E7B3FA83F1002946D173459A
:1003000002D3824200F20581841A6EEB03020120BF
:100310009046002DE5D0C5E90048E2E7002A00F04C
:100320009080B2FA82F6002E40F0A4808A1A030C64
:100330004FEA174E80B2BCB20121B2FBFEFC0EFBAD
:100340001C2243EA024304FB0CF29A4207D9FB1831
:100350000CF1FF3802D29A4200F2E080C4469B1AA8
:10036000B3FBFEF20EFB123340EA034302FB04F43C
:100370009C4207D9FB1802F1FF3002D29C4200F2E6
:10038000CA8002461B1B42EA0C40A5E7C1F12006C9
:100390008B4022FA06F71F430EFA01F420FA06F307
:1003A0002EFA06FE4FEA1749234300FA01F81FFA16
:1003B00087FCBEFBF9F01C0C09FB10EE44EA0E446E
:1003C00000FB0CFEA64502FA01F209D93C1900F126
:1003D000FF3A80F09C80A64540F2998002383C4468
:1003E000A4EB0E041FFA83FEB4FBF9F309FB1344DC
:1003F0004EEA044403FB0CFCA44508D93C1903F164
:10040000FF3E80F08280A4457FD9023B3C4443EA12
:100410000040A4EB0C04A0FB02EC64457346E146EB
:1004200062D35FD05DB1B8EB030264EB090404FA58
:1004300006F622FA01F31E43CC40C5E90064002110
:100440004FE7B1FBF2FC010C41EA0E4180B240EAF9
:1004500001423B4638463C46B846BE462026B1FBE4
:10046000F7F1A2EB080241EA0C4166E7014618E702
:1004700010462CE7C6F120022EFA02F3B740B14035
:1004800020FA02F24FEA174E0A43B3FBFEF8BCB261
:100490000EFB1833110C41EA034108FB04F9B0408C
:1004A00089454FEA104380B23ED9791808F1FF3CE4
:1004B00001D289451FD8A1EB0901B1FBFEF909FB67
:1004C00004F80EFB191192B242EA0142424529D2C8
:1004D000BA1809F1FF31C4D24245C2D2A9F10201D2
:1004E0003A44BEE7F0459DD2BEEB02036CEB070C2D
:1004F0000138E14696E7A7EB09094944A8F1020C47
:10050000B1FBFEF909FB04F8DBE773467FE75046D1
:1005100066E70846FDE63B44023A33E7ACF1020CDD
:100520003B441CE749469CE7A1EB0901C446B1FBEB
:10053000FEF909FB04F8C4E7704700BF10F8012B6F
:1005400011F8013B012A28BF9A42F7D0D01A704710
:10055000034613F8012B002AFBD1181A0138704703
:1005600080B400AF064BD3F88830054A43F47003DB
:10057000C2F8883000BFBD465DF8047B704700BFFD
:1005800000ED00E080B582B000AF78607B68002BA2
:1005900001D1012349E07B6893F83D30DBB2002BA9
:1005A00006D17B68002283F83C20786800F041F88F
:1005B0007B68022283F83D207B681A687B680433DD
:1005C0001946104600F0E8F97B68012283F84820BC
:1005D0007B68012283F83E207B68012283F83F205C
:1005E0007B68012283F840207B68012283F8412048
:1005F0007B68012283F842207B68012283F8432034
:100600007B68012283F844207B68012283F845201F
:100610007B68012283F846207B68012283F847200B
:100620007B68012283F83D20002318460837BD4629
:1006300080BD80B483B000AF786000BF0C37BD468A
:100640005DF8047B7047000080B485B000AF78602F
:100650007B6893F83D30DBB2012B01D0012354E0DD
:100660007B68022283F83D207B681B68DA687B6820
:100670001B6842F00102DA607B681B68264A9342DD
:1006800022D07B681B68B3F1804F1DD07B681B684C
:10069000224A934218D07B681B68214A934213D0A8
:1006A0007B681B681F4A93420ED07B681B681E4AFA
:1006B000934209D07B681B681C4A934204D07B6834
:1006C0001B681B4A934215D17B681B689A68194BBB
:1006D0001340FB60FB68062B15D0FB68B3F5803F29
:1006E00011D07B681B681A687B681B6842F00102A6
:1006F0001A6008E07B681B681A687B681B6842F018
:1007000001021A6000E000BF002318461437BD46FE
:100710005DF8047B704700BF00000140000400400A
:1007200000080040000C004000040140004001406F
:10073000001800400700010080B584B000AF786069
:100740007B681B68DB68FB607B681B681B69BB60A0
:10075000BB6803F00203002B20D0FB6803F0020308
:10076000002B1BD07B681B686FF002021A617B684C
:1007700001221A777B681B689B6903F00303002B37
:1007800003D0786800F0E9F805E0786800F0DBF85D
:10079000786800F0ECF87B6800221A77BB6803F0F9
:1007A0000403002B20D0FB6803F00403002B1BD0B4
:1007B0007B681B686FF004021A617B6802221A775B
:1007C0007B681B689B6903F44073002B03D0786837
:1007D00000F0C3F805E0786800F0B5F8786800F03C
:1007E000C6F87B6800221A77BB6803F00803002B69
:1007F00020D0FB6803F00803002B1BD07B681B682C
:100800006FF008021A617B6804221A777B681B6804
:10081000DB6903F00303002B03D0786800F09DF838
:1008200005E0786800F08FF8786800F0A0F87B6841
:1008300000221A77BB6803F01003002B20D0FB685E
:1008400003F01003002B1BD07B681B686FF01002B5
:100850001A617B6808221A777B681B68DB6903F4DE
:100860004073002B03D0786800F077F805E07868D3
:1008700000F069F8786800F07AF87B6800221A774F
:10088000BB6803F00103002B0CD0FB6803F00103ED
:10089000002B07D07B681B686FF001021A61786833
:1008A00007F05EF8BB6803F08003002B04D1BB683F
:1008B00003F40053002B0CD0FB6803F08003002BE3
:1008C00007D07B681B686FF402521A61786800F0E9
:1008D00013F9BB6803F48073002B0CD0FB6803F0A2
:1008E0008003002B07D07B681B686FF480721A614D
:1008F000786800F00BF9BB6803F04003002B0CD0C4
:10090000FB6803F04003002B07D07B681B686FF087
:1009100040021A61786800F034F8BB6803F02003E5
:10092000002B0CD0FB6803F02003002B07D07B6862
:100930001B686FF020021A61786800F0D3F800BFDE
:100940001037BD4680BD80B483B000AF786000BF73
:100950000C37BD465DF8047B704780B483B000AFB0
:10096000786000BF0C37BD465DF8047B704780B4EB
:1009700083B000AF786000BF0C37BD465DF8047BE4
:10098000704780B483B000AF786000BF0C37BD46BD
:100990005DF8047B7047000080B485B000AF7860DC
:1009A00039607B681B68FB607B68434A934213D0C5
:1009B0007B68B3F1804F0FD07B68404A93420BD0E5
:1009C0007B683F4A934207D07B683E4A934203D0FC
:1009D0007B683D4A934208D1FB6823F07003FB60BB
:1009E0003B685B68FA681343FB607B68324A93425A
:1009F0002BD07B68B3F1804F27D07B682F4A93427E
:100A000023D07B682E4A93421FD07B682D4A9342A5
:100A10001BD07B682C4A934217D07B682B4A9342A9
:100A200013D07B682A4A93420FD07B68294A9342AD
:100A30000BD07B68284A934207D07B68274A9342B1
:100A400003D07B68264A934208D1FB6823F44073A5
:100A5000FB603B68DB68FA681343FB60FB6823F0CC
:100A600080023B685B691343FB603B689A687B6864
:100A7000DA623B681A687B689A627B680E4A934226
:100A800003D07B68104A934203D13B681A697B68A4
:100A90001A637B681B6843F004027B681A607B68FA
:100AA00001225A617B68FA681A6000BF1437BD469C
:100AB0005DF8047B704700BF000001400004004067
:100AC00000080040000C00400004014000400140CC
:100AD000004401400048014000180040001C004054
:100AE0000020004080B483B000AF786000BF0C37B6
:100AF000BD465DF8047B704780B483B000AF78607A
:100B000000BF0C37BD465DF8047B704780B483B0EE
:100B100000AF786000BF0C37BD465DF8047B7047BE
:100B200080B485B000AF78607B6803F00703FB609A
:100B30000B4BDB68BB60BA684FF6FF031340BB602A
:100B4000FB681A02BB681A43064B1343BB60044A96
:100B5000BB68D36000BF1437BD465DF8047B7047A7
:100B600000ED00E00000FA0580B400AF044BDB6844
:100B70001B0A03F007031846BD465DF8047B704767
:100B800000ED00E080B483B000AF0346FB7197F93D
:100B90000730002B0BDBFB7903F01F02074997F9A5
:100BA00007305B09012000FA02F241F8232000BF60
:100BB0000C37BD465DF8047B704700BF00E100E0E4
:100BC00080B483B000AF03463960FB7197F90730FA
:100BD000002B0ADB3B68DAB20C4997F907301201A7
:100BE000D2B20B4483F800230AE03B68DAB208492A
:100BF000FB7903F00F03043B1201D2B20B441A76C7
:100C000000BF0C37BD465DF8047B704700E100E093
:100C100000ED00E080B489B000AFF860B9607A60A0
:100C2000FB6803F00703FB61FB69C3F10703042BB7
:100C300028BF0423BB61FB690433062B02D9FB697F
:100C4000033B00E000237B614FF0FF32BB6902FAF7
:100C500003F3DA43BB681A407B699A404FF0FF31D7
:100C60007B6901FA03F3D9437B680B4013431846B1
:100C70002437BD465DF8047B704780B582B000AF75
:100C800078607868FFF74CFF00BF0837BD4680BD2D
:100C900080B586B000AF0346B9607A60FB7300236D
:100CA0007B61FFF761FF78617A68B9687869FFF75F
:100CB000B1FF024697F90F3011461846FFF780FF43
:100CC00000BF1837BD4680BD80B582B000AF034677
:100CD000FB7197F907301846FFF754FF00BF08373C
:100CE000BD4680BD80B400AFBFF35F8F00BF074B30
:100CF0005B6A064A23F480335362054B00225A6034
:100D000000BFBD465DF8047B704700BF00ED00E00A
:100D100090ED00E080B483B000AF78600B4A7B6850
:100D200043F0010353600A4B5B6A094A43F4803382
:100D30005362BFF34F8F00BFBFF36F8F00BF00BF81
:100D40000C37BD465DF8047B704700BF90ED00E0B6
:100D500000ED00E080B483B000AF78607B685A7823
:100D60001B4B9A601A4B1B69194A23F0010313614C
:100D7000174A7B685B68D3607B681B7B1A077B68BC
:100D8000DB7A1B061A437B689B7ADB041A437B6879
:100D90005B7B9B041A437B689B7B5B041A437B68E9
:100DA000DB7B1B041A437B685B7A1B021A437B685C
:100DB0001B7A5B0013437A6812781146044A0B438E
:100DC000136100BF0C37BD465DF8047B704700BF60
:100DD00090ED00E080B586B000AF78600023FB7531
:100DE0007B68002B01D1012391E27B681B6803F033
:100DF0000103002B00F08780964B9B6803F00C03E7
:100E0000042B0CD0934B9B6803F00C03082B12D1DE
:100E1000904B5B6803F48003B3F5800F0BD18D4BCF
:100E20001B6803F40033002B6CD07B685B68002BDD
:100E300068D101236BE27B685B68B3F5803F06D124
:100E4000844B1B68834A43F4803313602EE07B6835
:100E50005B68002B0CD17F4B1B687E4A23F48033E8
:100E600013607C4B1B687B4A23F4802313601DE0D6
:100E70007B685B68B3F5A02F0CD1764B1B68754A75
:100E800043F480231360734B1B68724A43F480332E
:100E900013600BE06F4B1B686E4A23F480331360C2
:100EA0006C4B1B686B4A23F4802313607B685B6880
:100EB000002B13D001F0C6FE386108E001F0C2FE3D
:100EC00002463B69D31A642B01D903231FE2614B0D
:100ED0001B6803F40033002BF0D014E001F0B2FEE5
:100EE000386108E001F0AEFE02463B69D31A642B7C
:100EF00001D903230BE2574B1B6803F40033002B8B
:100F0000F0D100E000BF7B681B6803F00203002BF8
:100F100069D0504B9B6803F00C03002B0BD04D4B5A
:100F20009B6803F00C03082B1CD14A4B5B6803F44D
:100F30008003002B16D1474B1B6803F00203002BE4
:100F400005D07B68DB68012B01D00123DFE1414B39
:100F50001B6823F0F8027B681B69DB003D491343E3
:100F60000B6040E07B68DB68002B23D0394B1B68AB
:100F7000384A43F00103136001F064FE386108E071
:100F800001F060FE02463B69D31A022B01D903230C
:100F9000BDE1304B1B6803F00203002BF0D02D4B5A
:100FA0001B6823F0F8027B681B69DB0029491343A7
:100FB0000B6018E0274B1B68264A23F001031360DF
:100FC00001F040FE386108E001F03CFE02463B695A
:100FD000D31A022B01D9032399E11E4B1B6803F09E
:100FE0000203002BF0D17B681B6803F00803002B81
:100FF00038D07B685B69002B19D0164B5B6F154AA4
:1010000043F00103536701F01DFE386108E001F071
:1010100019FE02463B69D31A022B01D9032376E15C
:101020000C4B5B6F03F00203002BF0D01AE0094B6E
:101030005B6F084A23F00103536701F003FE386138
:101040000AE001F0FFFD02463B69D31A022B03D9E7
:1010500003235CE100380240914B5B6F03F0020315
:10106000002BEED17B681B6803F00403002B00F01B
:10107000A4808B4B1B6C03F08053002B0DD1884B4D
:101080001B6C874A43F080531364854B1B6C03F041
:101090008053BB60BB680123FB75824B1B6803F464
:1010A0008073002B18D17F4B1B687E4A43F48073FA
:1010B000136001F0C7FD386108E001F0C3FD02468E
:1010C0003B69D31A642B01D9032320E1754B1B68BC
:1010D00003F48073002BF0D07B689B68012B06D152
:1010E0006F4B1B6F6E4A43F0010313672DE07B6863
:1010F0009B68002B0CD16A4B1B6F694A23F00103DC
:101100001367674B1B6F664A23F0040313671CE0E9
:101110007B689B68052B0CD1614B1B6F604A43F0C9
:10112000040313675E4B1B6F5D4A43F001031367B3
:101130000BE05B4B1B6F5A4A23F001031367584BBC
:101140001B6F574A23F0040313677B689B68002BCF
:1011500015D001F077FD38610AE001F073FD024619
:101160003B69D31A41F28832934201D90323CEE07E
:101170004B4B1B6F03F00203002BEED014E001F089
:1011800061FD38610AE001F05DFD02463B69D31A5A
:1011900041F28832934201D90323B8E0404B1B6FE0
:1011A00003F00203002BEED1FB7D012B05D13C4B5C
:1011B0001B6C3B4A23F0805313647B689B69002BB4
:1011C00000F0A480364B9B6803F00C03082B6BD017
:1011D0007B689B69022B49D1314B1B68304A23F055
:1011E0008073136001F02EFD386108E001F02AFDE4
:1011F00002463B69D31A022B01D9032387E0284B0F
:101200001B6803F00073002BF0D17B68DA697B6800
:101210001B6A1A437B685B6A9B011A437B689B6A63
:101220005B08013B1B041A437B68DB6A1B06134304
:101230001B4A43F000535360194B1B68184A43F094
:101240008073136001F0FEFC386108E001F0FAFCE5
:1012500002463B69D31A022B01D9032357E0104BF6
:101260001B6803F00073002BF0D04FE00C4B1B68A1
:101270000B4A23F08073136001F0E4FC386108E04E
:1012800001F0E0FC02463B69D31A022B01D903238B
:101290003DE0034B1B6803F00073002BF0D135E0F9
:1012A00000380240007000401B4B5B68FB607B68AD
:1012B0009B69012B28D0FB6803F480027B68DB6903
:1012C0009A4221D1FB6803F03F027B681B6A9A4275
:1012D0001AD1FA6847F6C07313407A68526A9201CD
:1012E000934211D1FB6803F440327B689B6A5B0830
:1012F000013B1B049A4207D1FB6803F070627B68D4
:10130000DB6A1B069A4201D0012300E00023184645
:101310001837BD4680BD00BF0038024080B584B09C
:1013200000AF786039600023FB607B68002B01D13F
:101330000123D0E06A4B1B6803F00F033A689A421E
:1013400010D9674B1B6823F00F0265493B681343B4
:101350000B60634B1B6803F00F033A689A4201D09D
:101360000123B8E07B681B6803F00203002B20D048
:101370007B681B6803F00403002B05D0594B9B6866
:10138000584A43F4E05393607B681B6803F00803FA
:10139000002B05D0534B9B68524A43F46043936043
:1013A000504B9B6823F0F0027B689B684D491343C8
:1013B0008B607B681B6803F00103002B40D07B68C7
:1013C0005B68012B07D1474B1B6803F40033002BEC
:1013D00015D101237FE07B685B68022B07D1414B6D
:1013E0001B6803F00073002B09D1012373E03D4B10
:1013F0001B6803F00203002B01D101236BE0394B82
:101400009B6823F003027B685B68364913438B605B
:1014100001F018FCF8600AE001F014FC0246FB68D9
:10142000D31A41F28832934201D9032353E02D4B62
:101430009B6803F00C027B685B689B009A42EBD1CF
:10144000274B1B6803F00F033A689A4210D2244BD3
:101450001B6823F00F0222493B6813430B60204BAB
:101460001B6803F00F033A689A4201D0012332E06F
:101470007B681B6803F00403002B08D0194B9B68A2
:1014800023F4E0527B68DB68164913438B607B686A
:101490001B6803F00803002B09D0124B9B6823F450
:1014A00060427B681B69DB000E4913438B6000F0D0
:1014B00021F802460B4B9B681B0903F00F030A49F6
:1014C000CB5C22FA03F3094A1360094B1B681846E8
:1014D00007F036F8002318461037BD4680BD00BF20
:1014E000003C024000380240C4EF00080000002029
:1014F000040000202DE9B04F94B000AF00237B64BE
:101500000023FB6400233B640023BB64794B9B688E
:1015100003F00C03082B0DD0082B00F2E180002B08
:1015200002D0042B03D0DBE0734BBB64DBE0734BD6
:10153000BB64D8E06F4B5B6803F03F037B646D4B8B
:101540005B6803F48003002B63D06A4B5B689B09E4
:101550000022BB63FA63BB6BC3F308033B63002346
:101560007B63D7E90C4522462B464FF000004FF035
:101570000001590141EAD261500102460B46214661
:10158000511A3961294663EB01037B614FF0000278
:101590004FF00003D7E904AB59468B01514643EAAB
:1015A000916351468A015146B2EB0108594663EBFB
:1015B00001094FF000024FF000034FEAC90343EA6C
:1015C00058734FEAC80290469946234618EB030326
:1015D000BB602B4649EB0303FB604FF000024FF06A
:1015E0000003D7E9024529464B02214643EAD1537D
:1015F00021464A02104619467B6C0022BB62FA6201
:10160000D7E90A23FEF704FE02460B461346FB64A5
:1016100058E0384B5B689B09002218461146C0F31E
:1016200008033B6200237B62D7E9088942464B46A8
:101630004FF000004FF00001590141EAD261500122
:1016400002460B464146B2EB010A494663EB010BE9
:101650004FF000024FF000034FEA8B1343EA9A6306
:101660004FEA8A12B2EB0A0463EB0B054FF000025B
:101670004FF00003EB0043EA5473E20014461D46AA
:101680004346E3183B604B4645EB03037B604FF05A
:1016900000024FF00003D7E9004529468B0221469E
:1016A00043EA915321468A02104619467B6C002278
:1016B000BB61FA61D7E90623FEF7AAFD02460B4695
:1016C0001346FB640B4B5B681B0C03F003030133F5
:1016D0005B003B64FA6C3B6CB2FBF3F3BB6402E06F
:1016E000054BBB6400BFBB6C18465037BD46BDE818
:1016F000B08F00BF003802400024F40000127A00CE
:1017000080B400AF034B1B681846BD465DF8047BF0
:10171000704700BF0000002080B500AFFFF7F0FF6A
:101720000246054B9B689B0A03F007030349CB5C09
:1017300022FA03F3184680BD00380240D4EF0008B7
:1017400080B500AFFFF7DCFF0246054B9B685B0BE3
:1017500003F007030349CB5C22FA03F3184680BD6C
:1017600000380240D4EF000880B483B000AF786046
:1017700039607B680F221A60124B9B6803F00302EA
:101780007B685A600F4B9B6803F0F0027B689A609D
:101790000C4B9B6803F4E0527B68DA60094B9B6852
:1017A000DB0803F4E0527B681A61074B1B6803F007
:1017B0000F023B681A6000BF0C37BD465DF8047B22
:1017C000704700BF00380240003C024080B588B03E
:1017D00000AF786000237B6100233B610023FB6046
:1017E0000023FB610023BB617B681B6803F00103DE
:1017F000002B12D0694B9B68684A23F40003936066
:10180000664B9A687B685B6B644913438B607B68AB
:101810005B6B002B01D10123FB617B681B6803F428
:101820000023002B17D05D4BD3F88C3023F44012EB
:101830007B68DB6B59491343C1F88C307B68DB6BE9
:10184000B3F5801F01D10123FB617B68DB6B002BAB
:1018500001D10123BB617B681B6803F48013002B5B
:1018600017D04E4BD3F88C3023F440027B681B6CAE
:101870004A491343C1F88C307B681B6CB3F5800F69
:1018800001D10123FB617B681B6C002B01D101237B
:10189000BB617B681B6803F08073002B01D00123C0
:1018A000FB617B681B6803F02003002B00F08B803A
:1018B0003A4B1B6C394A43F080531364374B1B6C13
:1018C00003F08053BB60BB68354B1B68344A43F45C
:1018D0008073136001F0B6F9786108E001F0B2F9A5
:1018E00002467B69D31A642B01D9032357E32C4B9F
:1018F0001B6803F48073002BF0D0284B1B6F03F49C
:1019000040733B613B69002B35D07B681B6B03F454
:1019100040733A699A422ED0204B1B6F23F44073D8
:101920003B611E4B1B6F1D4A43F4803313671B4BF7
:101930001B6F1A4A23F480331367184A3B691367F5
:10194000164B1B6F03F00103012B14D101F07AF940
:1019500078610AE001F076F902467B69D31A41F218
:101960008832934201D9032319E30C4B1B6F03F018
:101970000203002BEED07B681B6B03F44073B3F5BE
:10198000407F11D1054B9B6823F4F8127B68196BDB
:10199000044B0B40014913438B600BE000380240BD
:1019A00000700040FFFCFF0FAA4B9B68A94A23F47C
:1019B000F8139360A74B1A6F7B681B6BC3F30B0381
:1019C000A44913430B677B681B6803F01003002BCB
:1019D00010D0A04BD3F88C309E4A23F08073C2F80D
:1019E0008C309C4BD3F88C207B689B6B99491343BC
:1019F000C1F88C307B681B6803F48043002B0AD04D
:101A0000944BD3F8903023F440327B685B6E91495D
:101A10001343C1F890307B681B6803F40043002B2C
:101A20000AD08C4BD3F8903023F440227B689B6E15
:101A300088491343C1F890307B681B6803F48033F6
:101A4000002B0AD0834BD3F8903023F440127B68EC
:101A5000DB6E80491343C1F890307B681B6803F448
:101A60000033002B0AD07B4BD3F8903023F4400294
:101A70007B681B6F77491343C1F890307B681B6804
:101A800003F04003002B0AD0724BD3F8903023F0C0
:101A900003027B685B6C6F491343C1F890307B682D
:101AA0001B6803F08003002B0AD06A4BD3F89030F8
:101AB00023F00C027B689B6C66491343C1F890309D
:101AC0007B681B6803F48073002B0AD0614BD3F84A
:101AD000903023F030027B68DB6C5E491343C1F821
:101AE00090307B681B6803F40073002B0AD0594BBD
:101AF000D3F8903023F0C0027B681B6D5549134327
:101B0000C1F890307B681B6803F48063002B0AD017
:101B1000504BD3F8903023F440727B685B6D4D4995
:101B20001343C1F890307B681B6803F40063002BFB
:101B30000AD0484BD3F8903023F440627B689B6D09
:101B400044491343C1F890307B681B6803F4805309
:101B5000002B0AD03F4BD3F8903023F440527B68DF
:101B6000DB6D3C491343C1F890307B681B6803F47C
:101B70000053002B0AD0374BD3F8903023F4404267
:101B80007B681B6E33491343C1F890307B681B6838
:101B900003F48003002B0AD02E4BD3F8903023F0AF
:101BA00080627B689B6F2B491343C1F890307B6840
:101BB0001B6803F40013002B11D0264BD3F8903090
:101BC00023F000627B68DB6F22491343C1F8903039
:101BD0007B68DB6FB3F1006F01D10123BB617B68D0
:101BE0001B6803F00803002B01D00123BB617B6855
:101BF0001B6803F48023002B0AD0164BD3F89030D7
:101C000023F040727B685B6F12491343C1F8903038
:101C10007B681B6803F40003002B0BD00D4BD3F83B
:101C2000903023F080527B68D3F880300949134309
:101C3000C1F89030FB69012B06D07B681B6803F06C
:101C40000073002B00F0D980024B1B68014A23F07F
:101C5000806301E000380240136000F0F3FF786118
:101C600008E000F0EFFF02467B69D31A642B01D92C
:101C7000032394E16C4B1B6803F00063002BF0D14D
:101C80007B681B6803F00103002B21D07B685B6B32
:101C9000002B1DD1644BD3F884301B0C03F00303DD
:101CA0003B61614BD3F884301B0E03F00F03FB60E4
:101CB0007B685B689A013B691B041A43FB681B063F
:101CC0001A437B689B681B0757491343C1F884304C
:101CD0007B681B6803F40023002B04D07B68DB6B5C
:101CE000B3F5801F0AD07B681B6803F48013002BB8
:101CF0002ED07B681B6CB3F5800F29D14A4BD3F8EB
:101D000084301B0C03F003033B61474BD3F8843052
:101D10001B0F03F00703FB607B685B689A013B695C
:101D20001B041A437B68DB681B061A43FB681B070E
:101D30003D491343C1F884303B4BD3F88C3023F03A
:101D40001F027B685B6A013B37491343C1F88C3043
:101D50007B681B6803F08073002B1DD0324BD3F8D7
:101D600084301B0E03F00F033B612F4BD3F88430FC
:101D70001B0F03F00703FB607B685B689A017B68BD
:101D80001B691B041A433B691B061A43FB681B07AC
:101D900025491343C1F884307B681B6803F0007346
:101DA000002B11D07B685B689A017B681B691B0460
:101DB0001A437B68DB681B061A437B689B681B071A
:101DC00019491343C1F88430174B1B68164A43F076
:101DD0008063136000F036FF786108E000F032FFA6
:101DE00002467B69D31A642B01D90323D7E00E4B3B
:101DF0001B6803F00063002BF0D0BB69012B40F09F
:101E0000CD80094B1B68084A23F08053136000F013
:101E100019FF78610AE000F015FF02467B69D31ACA
:101E2000642B03D90323BAE0003802405E4B1B68E1
:101E300003F00053B3F1005FEDD07B681B6803F43F
:101E40000023002B03D07B68DB6B002B09D07B6861
:101E50001B6803F48013002B2ED07B681B6C002BB7
:101E60002AD1514BD3F888301B0C03F003033B619C
:101E70004D4BD3F888301B0F03F00703FB607B68E2
:101E80005B699A013B691B041A437B689B691B06CB
:101E90001A43FB681B0744491343C1F88830424B7F
:101EA000D3F88C3023F4F8527B689B6A013B1B0209
:101EB0003D491343C1F88C307B681B6803F4001361
:101EC000002B22D07B68DB6FB3F1006F1DD1364B46
:101ED000D3F888301B0E03F00F033B61324BD3F86D
:101EE00088301B0F03F00703FB607B685B699A0176
:101EF0007B681B6A1B041A433B691B061A43FB6879
:101F00001B0729491343C1F888307B681B6803F01D
:101F10000803002B28D0244BD3F888301B0E03F085
:101F20000F033B61204BD3F888301B0C03F00303F5
:101F3000FB607B685B699A01FB681B041A433B6981
:101F40001B061A437B68DB691B0717491343C1F85B
:101F50008830154BD3F88C3023F440327B68DB6A31
:101F600011491343C1F88C300F4B1B680E4A43F0E4
:101F70008053136000F066FE786108E000F062FEB6
:101F800002467B69D31A642B01D9032307E0064B71
:101F90001B6803F00053B3F1005FEFD10023184634
:101FA0002037BD4680BD00BF0038024080B489B0F4
:101FB00000AF786039600023FB6100237B61002360
:101FC0003B610023BB610023FB6175E10122FB69DA
:101FD00002FA03F37B613B681B687A6913403B613B
:101FE0003A697B699A4240F064813B685B6803F020
:101FF0000303012B05D03B685B6803F00303022B4E
:1020000030D17B689B68BB61FB695B00032202FAED
:1020100003F3DB43BA691340BB613B68DA68FB69D1
:102020005B0002FA03F3BA691343BB617B68BA69C8
:102030009A607B685B68BB610122FB6902FA03F36B
:10204000DB43BA691340BB613B685B681B0903F063
:102050000102FB6902FA03F3BA691343BB617B68AF
:10206000BA695A603B685B6803F00303032B17D01F
:102070007B68DB68BB61FB695B00032202FA03F348
:10208000DB43BA691340BB613B689A68FB695B003C
:1020900002FA03F3BA691343BB617B68BA69DA6079
:1020A0003B685B6803F00303022B23D1FB69DA086A
:1020B0007B68083253F82230BB61FB6903F00703E9
:1020C0009B000F2202FA03F3DB43BA691340BB61A2
:1020D0003B681A69FB6903F007039B0002FA03F3EC
:1020E000BA691343BB61FB69DA087B680832B969D6
:1020F00043F822107B681B68BB61FB695B0003220D
:1021000002FA03F3DB43BA691340BB613B685B68C7
:1021100003F00302FB695B0002FA03F3BA6913439D
:10212000BB617B68BA691A603B685B6803F4403343
:10213000002B00F0BE80664B5B6C654A43F4804325
:102140005364634B5B6C03F48043FB60FB68614A40
:10215000FB699B08023352F82330BB61FB6903F033
:1021600003039B000F2202FA03F3DB43BA69134017
:10217000BB617B68584A934237D07B68574A934289
:1021800031D07B68564A93422BD07B68554A9342A4
:1021900025D07B68544A93421FD07B68534A9342B0
:1021A00019D07B68524A934213D07B68514A9342BC
:1021B0000DD07B68504A934207D07B684F4A9342C8
:1021C00001D1092312E00A2310E008230EE00723BF
:1021D0000CE006230AE0052308E0042306E00323BD
:1021E00004E0022302E0012300E00023FA6902F088
:1021F000030292009340BA691343BB613549FB69FE
:102200009B080233BA6941F823203D4B9B68BB61B0
:102210003B69DB43BA691340BB613B685B6803F40D
:102220008013002B03D0BA693B691343BB61344A66
:10223000BB699360324BDB68BB613B69DB43BA69C6
:102240001340BB613B685B6803F40013002B03D0B1
:10225000BA693B691343BB61294ABB69D360284B08
:102260005B68BB613B69DB43BA691340BB613B6898
:102270005B6803F40033002B03D0BA693B69134356
:10228000BB611F4ABB6953601D4B1B68BB613B6947
:10229000DB43BA691340BB613B685B6803F480337E
:1022A000002B03D0BA693B691343BB61144ABB6975
:1022B0001360FB690133FB61FB690F2B7FF686AE70
:1022C00000BF00BF2437BD465DF8047B704700BFE8
:1022D0000038024000380140000002400004024083
:1022E00000080240000C02400010024000140240AE
:1022F00000180240001C024000200240002402405E
:10230000003C014080B485B000AF78600B467B8014
:102310007B681A697B881340002B02D00123FB7372
:1023200001E00023FB73FB7B18461437BD465DF8C4
:10233000047B704780B586B000AF786000237B6176
:1023400000F080FC38617B68002B01D1012399E00B
:102350007B68022283F835207B68002283F83420D2
:102360007B681B681A687B681B6822F001021A6090
:102370000FE000F067FC02463B69D31A052B08D931
:102380007B6820225A657B68032283F8352003236B
:1023900078E07B681B681B6803F00103002BE8D121
:1023A0007B681B681B687B617A69384B13407B61D3
:1023B0007B685A687B689B681A437B68DB681A43B2
:1023C0007B681B691A437B685B691A437B689B695E
:1023D0001A437B68DB691A437B681B6A13437A697B
:1023E00013437B617B685B6A042B07D17B68DA6AE5
:1023F0007B681B6B13437A6913437B617B681B68A3
:102400007A691A607B681B685B697B617B6923F072
:1024100007037B617B685B6A7A6913437B617B6836
:102420005B6A042B17D17B689B6A7A6913437B61D3
:102430007B68DB6A002B0ED0786800F015FB034642
:10244000002B08D07B6840225A657B68002283F805
:102450003520012316E07B681B687A695A61786829
:1024600000F0CCFA0346FB607B68DB6D3F229A40AC
:10247000FB689A607B6800225A657B68012283F8BA
:102480003520002318461837BD4680BD3F8010F028
:1024900080B586B000AFF860B9607A603B60002319
:1024A000FB75FB689B6D3B61FB6893F83430012B37
:1024B00001D1022348E0FB68012283F83420FB6845
:1024C00093F83530DBB2012B37D1FB68022283F859
:1024D0003520FB6800225A653B687A68B968F8685D
:1024E00000F05EFAFB68DB6D3F229A403B699A6020
:1024F000FB681B681A68FB681B6842F016021A60CA
:10250000FB681B685A69FB681B6842F080025A61CD
:10251000FB681B6C002B07D0FB681B681A68FB6804
:102520001B6842F008021A60FB681B681A68FB68A7
:102530001B6842F001021A6005E0FB68002283F884
:1025400034200223FB75FB7D18461837BD4680BD3D
:1025500080B584B000AF78607B689B6DFB6000F055
:1025600071FBB8607B6893F83530DBB2022B08D082
:102570007B6880225A657B68002283F8342001231F
:1025800052E07B681B681A687B681B6822F01602A1
:102590001A607B681B685A697B681B6822F080029E
:1025A0005A617B681B6C002B03D17B689B6C002BF2
:1025B00007D07B681B681A687B681B6822F00802DA
:1025C0001A607B681B681A687B681B6822F001022E
:1025D0001A6013E000F036FB0246BB68D31A052BE5
:1025E0000CD97B6820225A657B68032283F835204A
:1025F0007B68002283F83420032315E07B681B6886
:102600001B6803F00103002BE4D17B68DB6D3F22E4
:102610009A40FB689A607B68012283F835207B68CA
:10262000002283F83420002318461037BD4680BDB1
:1026300080B483B000AF78607B6893F83530DBB24C
:10264000022B04D07B6880225A6501230CE07B6852
:10265000052283F835207B681B681A687B681B6835
:1026600022F001021A60002318460C37BD465DF8BF
:10267000047B704780B586B000AF78600023BB60F4
:102680008E4B1B688E4AA2FB03239B0A7B617B68EF
:102690009B6D3B613B691B68FB607B68DB6D0822BF
:1026A0009A40FB681340002B1AD07B681B681B689C
:1026B00003F00403002B13D07B681B681A687B6847
:1026C0001B6822F004021A607B68DB6D08229A40C6
:1026D0003B699A607B685B6D43F001027B685A65D9
:1026E0007B68DB6D01229A40FB681340002B12D0FF
:1026F0007B681B685B6903F08003002B0BD07B6851
:10270000DB6D01229A403B699A607B685B6D43F008
:1027100002027B685A657B68DB6D04229A40FB6885
:102720001340002B12D07B681B681B6803F0020368
:10273000002B0BD07B68DB6D04229A403B699A60CA
:102740007B685B6D43F004027B685A657B68DB6DD8
:1027500010229A40FB681340002B43D07B681B6813
:102760001B6803F00803002B3CD07B68DB6D102254
:102770009A403B699A607B681B681B6803F480235E
:10278000002B18D07B681B681B6803F40023002B08
:1027900008D17B681B6C002B24D07B681B6C78688D
:1027A00098471FE07B689B6C002B1BD07B689B6C61
:1027B0007868984716E07B681B681B6803F4807391
:1027C000002B07D17B681B681A687B681B6822F0A6
:1027D00008021A607B681B6C002B03D07B681B6CA3
:1027E000786898477B68DB6D20229A40FB6813402D
:1027F000002B00F08F807B681B681B6803F01003C0
:10280000002B00F087807B68DB6D20229A403B69BB
:102810009A607B6893F83530DBB2052B36D17B6844
:102820001B681A687B681B6822F016021A607B68B6
:102830001B685A697B681B6822F080025A617B68BA
:102840001B6C002B03D17B689B6C002B07D07B6833
:102850001B681A687B681B6822F008021A607B6894
:10286000DB6D3F229A403B699A607B68012283F8C6
:1028700035207B68002283F834207B681B6D002B99
:102880007ED07B681B6D7868984779E07B681B6811
:102890001B6803F48023002B1DD07B681B681B681A
:1028A00003F40023002B0DD17B685B6C002B31D02F
:1028B0007B685B6C786898472CE000BF00000020C4
:1028C000B5814E1B7B68DB6B002B23D07B68DB6BF9
:1028D000786898471EE07B681B681B6803F4807368
:1028E000002B0FD17B681B681A687B681B6822F07D
:1028F00010021A607B68012283F835207B68002271
:1029000083F834207B68DB6B002B03D07B68DB6BA8
:10291000786898477B685B6D002B32D07B685B6D75
:1029200003F00103002B22D07B68052283F83520B9
:102930007B681B681A687B681B6822F001021A60BA
:10294000BB680133BB607A699A4207D37B681B6816
:102950001B6803F00103002BF2D100E000BF7B688D
:10296000012283F835207B68002283F834207B68BD
:10297000DB6C002B05D07B68DB6C7868984700E047
:1029800000BF1837BD4680BD80B483B000AF78600B
:102990007B685B6D18460C37BD465DF8047B70475D
:1029A00080B485B000AFF860B9607A603B60FB68C6
:1029B0001B681A68FB681B6822F480221A60FB6897
:1029C0001B683A685A60FB689B68402B08D1FB681B
:1029D0001B687A689A60FB681B68BA68DA6007E06F
:1029E000FB681B68BA689A60FB681B687A68DA60E3
:1029F00000BF1437BD465DF8047B704780B485B0D6
:102A000000AF78607B681B68DBB2103B134AA2FB07
:102A100003231B09FB60124AFB6813441B781A4608
:102A20007B68DA65FB68032B08D97B681B681A464C
:102A30000C4B13401A1D7B689A6506E07B681B6887
:102A40001A46084B13407A6893657B689B6D18465D
:102A50001437BD465DF8047B704700BFABAAAAAA35
:102A6000DCEF000800FCFFFF80B485B000AF7860A9
:102A70000023FB737B689B6ABB607B689B69002BB0
:102A80001FD1BB68032B56D801A252F823F000BF18
:102A9000A12A0008B32A0008A12A0008372B000841
:102AA0007B68DB6A03F08073002B46D00123FB7345
:102AB00043E07B68DB6AB3F1C07F40D10123FB7345
:102AC0003DE07B689B69B3F5005F21D1BB68032BB8
:102AD00037D801A252F823F0E92A0008EF2A0008AB
:102AE000E92A0008012B00080123FB7330E07B6812
:102AF000DB6A03F08073002B25D00123FB7322E0F7
:102B00007B68DB6AB3F1C07F1FD10123FB731CE03C
:102B1000BB68022B03D9BB68032B03D018E0012349
:102B2000FB7315E07B68DB6A03F08073002B0ED02B
:102B30000123FB730BE000BF0AE000BF08E000BF09
:102B400006E000BF04E000BF02E000BF00E000BFFD
:102B5000FB7B18461437BD465DF8047B704700BF09
:102B600080B582B000AF00237B60234B1B6C224AF0
:102B700043F080531364204B1B6C03F080533B6085
:102B80003B681E4B1B681D4A43F48033136000F002
:102B900059F8786009E000F055F802467B68D31ACE
:102BA000B3F57A7F01D9032322E0144B5B6803F469
:102BB0008033B3F5803FEED1104B1B680F4A43F4CE
:102BC0000033136000F03EF8786009E000F03AF856
:102BD00002467B68D31AB3F57A7F01D9032307E055
:102BE000064B5B6803F40033B3F5003FEED10023DE
:102BF00018460837BD4680BD0038024000700040CE
:102C000080B500AF0320FEF738F80F2005F098FCE0
:102C100005F06EFC0023184680BD000080B400AFB4
:102C2000064B1B781A46064B1B681344044A136074
:102C300000BFBD465DF8047B704700BF0800002060
:102C4000BC00002080B400AF034B1B681846BD4693
:102C50005DF8047B704700BFBC00002080B582B0E7
:102C600000AF78607B68002B01D1012340E07B68D6
:102C7000DB6F002B06D17B68002283F87820786810
:102C800005F0BAF87B682422DA677B681B681A684B
:102C90007B681B6822F001021A607B685B6A002B6C
:102CA00002D0786800F0AAFF786800F043FD034680
:102CB000012B01D101231BE07B681B685A687B68EC
:102CC0001B6822F490425A607B681B689A687B6894
:102CD0001B6822F02A029A607B681B681A687B686E
:102CE0001B6842F001021A60786801F029F8034677
:102CF00018460837BD4680BD80B48BB000AFF86081
:102D0000B9601346FB80FB68DB6F202B47D1BB68A3
:102D1000002B02D0FB88002B01D1012340E0FB688F
:102D2000BA68DA64FB68FA88A3F85020FB68FA886E
:102D3000A3F85220FB680022DA66FB680022C3F881
:102D40008420FB682122DA67FB689B68B3F5805F0B
:102D500007D1FB681B69002B03D1FB68134ADA66B5
:102D600002E0FB68124ADA66FB681B687B617B69DC
:102D700053E8003F3B613B6943F080037B62FB68A3
:102D80001B681A467B6A3B62FA61F9693A6A41E854
:102D90000023BB61BB69002BE6D1002300E00223C6
:102DA00018462C37BD465DF8047B70478346000803
:102DB000CD45000880B58AB000AFF860B960134611
:102DC000FB80FB68D3F88030202B32D1BB68002B0E
:102DD00002D0FB88002B01D101232BE0FB680022ED
:102DE0001A66FB681B685B6803F40003002B18D0AD
:102DF000FB681B687B617B6953E8003F3B613B6973
:102E000043F080637B62FB681B681A467B6A3B6207
:102E1000FA61F9693A6A41E80023BB61BB69002B9A
:102E2000E6D1FB881A46B968F86801F04DF8034608
:102E300000E0022318462837BD4680BD80B58AB021
:102E400000AFF860B9601346FB80FB68DB6F202B96
:102E500065D1BB68002B02D0FB88002B01D1012378
:102E60005EE0FB68BA68DA64FB68FA88A3F8502071
:102E7000FB68FA88A3F85220FB680022C3F884207C
:102E8000FB682122DA67FB681B6F002B27D0FB68E9
:102E90001B6F254ADA63FB681B6F244A1A64FB68C0
:102EA0001B6F234ADA64FB681B6F00221A65FB68FC
:102EB000186FFB68DB6C1946FB681B6828331A46E1
:102EC000FB88FFF7E5FA0346002B08D0FB681022C9
:102ED000C3F88420FB682022DA67012320E0FB6826
:102EE0001B6840221A62FB681B6808337B617B69A0
:102EF00053E8003F3B613B6943F080037B62FB6822
:102F00001B6808337A6A3A62FB61F9693A6A41E8F8
:102F10000023BB61BB69002BE5D1002300E0022345
:102F200018462837BD4680BDA94200083F43000827
:102F30002B45000880B58AB000AFF860B960134631
:102F4000FB80FB68D3F88030202B32D1BB68002B8C
:102F500002D0FB88002B01D101232BE0FB6800226B
:102F60001A66FB681B685B6803F40003002B18D02B
:102F7000FB681B687B617B6953E8003F3B613B69F1
:102F800043F080637B62FB681B681A467B6A3B6286
:102F9000FA61F9693A6A41E80023BB61BB69002B19
:102FA000E6D1FB881A46B968F86801F053F8034681
:102FB00000E0022318462837BD4680BD80B59AB090
:102FC00000AF78607B681B68BB64BB6C53E8003F54
:102FD0007B647B6C23F490737B667B681B681A466A
:102FE0007B6E7B653A65396D7A6D41E80023FB6441
:102FF000FB6C002BE6D17B681B6808337B637B6B23
:1030000053E8003F3B633B6B23F001033B667B6867
:103010001B6808333A6E3A64FB63F96B3A6C41E81B
:103020000023BB63BB6B002BE5D17B681B6E012BC0
:1030300018D17B681B683B623B6A53E8003FFB6129
:10304000FB6923F01003FB657B681B681A46FB6D68
:10305000FB62BA62B96AFA6A41E800237B627B6A62
:10306000002BE6D17B681B689B6803F04003402B74
:1030700037D17B681B680833FB60FB6853E8003F6F
:10308000BB60BB6823F04003BB657B681B680833EB
:10309000BA6DBA617B617969BA6941E800233B6125
:1030A0003B69002BE5D17B685B6F002B19D07B68F7
:1030B0005B6F00221A657B685B6F1846FFF748FA62
:1030C0000346002B0DD07B685B6F1846FFF75CFC56
:1030D0000346202B05D17B681022C3F884200323EC
:1030E00017E07B680022A3F85A207B681B680F2238
:1030F0001A627B681B689A697B681B6842F0080249
:103100009A617B682022C3F880207B6800221A66BF
:10311000002318466837BD4680BD000080B5BAB0B0
:1031200000AF78607B681B68DB69C7F8E4307B68B8
:103130001B681B68C7F8E0307B681B689B68C7F892
:10314000DC30D7F8E42040F60F031340C7F8D8303E
:10315000D7F8D830002B15D1D7F8E43003F020038E
:10316000002B0FD0D7F8E03003F02003002B09D05C
:103170007B689B6E002B00F0B1827B689B6E786849
:103180009847ABE2D7F8D830002B00F01781D7F87A
:10319000DC3003F00103002B06D1D7F8E020854B8B
:1031A0001340002B00F00A81D7F8E43003F001034C
:1031B000002B11D0D7F8E03003F48073002B0BD034
:1031C0007B681B6801221A627B68D3F8843043F065
:1031D00001027B68C3F88420D7F8E43003F00203CF
:1031E000002B11D0D7F8DC3003F00103002B0BD0FB
:1031F0007B681B6802221A627B68D3F8843043F034
:1032000004027B68C3F88420D7F8E43003F0040399
:10321000002B11D0D7F8DC3003F00103002B0BD0CA
:103220007B681B6804221A627B68D3F8843043F001
:1032300002027B68C3F88420D7F8E43003F0080367
:10324000002B17D0D7F8E03003F02003002B05D176
:10325000D7F8DC3003F00103002B0BD07B681B6830
:1032600008221A627B68D3F8843043F008027B6836
:10327000C3F88420D7F8E43003F40063002B12D0A5
:10328000D7F8E03003F08063002B0CD07B681B681C
:103290004FF400621A627B68D3F8843043F0200256
:1032A0007B68C3F884207B68D3F88430002B00F05F
:1032B0001782D7F8E43003F02003002B0DD0D7F8A5
:1032C000E03003F02003002B07D07B689B6E002BBF
:1032D00003D07B689B6E786898477B68D3F884300E
:1032E000C7F8D4307B681B689B6803F04003402B11
:1032F00005D0D7F8D43003F02803002B4FD07868DE
:1033000000F06EFF7B681B689B6803F04003402B56
:1033100041D17B681B680833C7F89C30D7F89C30D4
:1033200053E8003FC7F89830D7F8983023F04003AF
:10333000C7F8D0307B681B680833D7F8D020C7F8AF
:10334000A820C7F8A430D7F8A410D7F8A82041E8DF
:103350000023C7F8A030D7F8A030002BD9D17B6864
:103360005B6F002B13D07B685B6F134A1A657B6819
:103370005B6F1846FFF75CF90346002B17D07B689C
:103380005B6F1B6D7A68526F104698470FE0786844
:1033900007F0C2FA0BE0786807F0BEFA07E0786839
:1033A00007F0BAFA7B680022C3F8842098E100BFD6
:1033B00096E100BF20010004A94500087B681B6E50
:1033C000012B40F06681D7F8E43003F01003002BA6
:1033D00000F05F81D7F8E03003F01003002B00F01D
:1033E00058817B681B6810221A627B681B689B6887
:1033F00003F04003402B40F0D0807B685B6F1B687C
:103400005B68A7F8BE30B7F8BE30002B00F0AB8089
:103410007B68B3F85830B7F8BE209A4280F0A3809A
:103420007B68B7F8BE20A3F85A207B685B6FDB6926
:10343000B3F5807F00F086807B681B68C7F8883012
:10344000D7F8883053E8003FC7F88430D7F8843085
:1034500023F48073C7F8B8307B681B681A46D7F826
:10346000B830C7F89430C7F89020D7F89010D7F844
:10347000942041E80023C7F88C30D7F88C30002B1B
:10348000DAD17B681B6808337B677B6F53E8003FAA
:103490003B673B6F23F00103C7F8B4307B681B68C0
:1034A0000833D7F8B420C7F88020FB67F96FD7F846
:1034B000802041E80023BB67BB6F002BE1D17B6814
:1034C0001B6808333B663B6E53E8003FFB65FB6DB2
:1034D00023F04003C7F8B0307B681B680833D7F887
:1034E000B020FA66BB66B96EFA6E41E800237B66CF
:1034F0007B6E002BE3D17B682022C3F880207B68A1
:1035000000221A667B681B68FB64FB6C53E8003F73
:10351000BB64BB6C23F01003C7F8AC307B681B683E
:103520001A46D7F8AC30BB657A65796DBA6D41E85B
:1035300000233B653B6D002BE4D17B685B6F184635
:10354000FFF706F87B6802225A667B68B3F85820BA
:103550007B68B3F85A309BB2D31A9BB2194678688D
:1035600000F0DCF8BEE07B68B3F85830B7F8BE2056
:103570009A4240F0B7807B685B6FDB69B3F5807F70
:1035800040F0B0807B6802225A667B68B3F85830FE
:103590001946786800F0C2F8A4E07B68B3F85820B8
:1035A0007B68B3F85A309BB2D31AA7F8CE307B6849
:1035B000B3F85A309BB2002B00F09680B7F8CE30AB
:1035C000002B00F091807B681B68BB63BB6B53E8EA
:1035D000003F7B637B6B23F49073C7F8C8307B6834
:1035E0001B681A46D7F8C8307B643A64396C7A6C29
:1035F00041E80023FB63FB6B002BE4D17B681B6875
:1036000008337B627B6A53E8003F3B623B6A23F0EE
:103610000103C7F8C4307B681B680833D7F8C4209F
:103620003A63FB62F96A3A6B41E80023BB62BB6A0A
:10363000002BE3D17B682022C3F880207B68002226
:103640001A667B6800229A667B681B683B613B694F
:1036500053E8003FFB60FB6823F01003C7F8C0305D
:103660007B681B681A46D7F8C030FB61BA61B9693C
:10367000FA6941E800237B617B69002BE4D17B6818
:1036800002225A66B7F8CE301946786800F046F83C
:103690002AE0D7F8E43003F08003002B0ED0D7F8EF
:1036A000E03003F08003002B08D07B68DB6E002B3A
:1036B0001CD07B68DB6E7868984717E0D7F8E43059
:1036C00003F04003002B12D0D7F8E03003F04003A2
:1036D000002B0CD0786801F034F808E000BF06E059
:1036E00000BF04E000BF02E000BF00E000BFE83719
:1036F000BD4680BD80B483B000AF786000BF0C379A
:10370000BD465DF8047B704780B483B000AF78603D
:1037100000BF0C37BD465DF8047B704780B483B0B2
:1037200000AF78600B467B8000BF0C37BD465DF86C
:10373000047B704780B588B000AF78600023BB770A
:103740007B689A687B681B691A437B685B691A43CC
:103750007B68DB6913437B617B681B681A68A64B37
:1037600013407A68126879690B4313607B681B68A1
:103770005B6823F440517B68DA687B681B680A4306
:103780005A607B689B697B617B681B6A7A6913431B
:103790007B617B681B689B6823F430617B681B68D6
:1037A0007A690A439A607B681B68944A934220D1E5
:1037B000934BD3F8903003F00303032B16D801A2E8
:1037C00052F823F0D5370008E1370008DB3700084E
:1037D000E73700080123FB7750E10223FB774DE137
:1037E0000423FB774AE10823FB7747E11023FB77AB
:1037F00044E17B681B68834A934232D1804BD3F803
:10380000903003F00C030C2B28D801A252F823F0BF
:10381000453800085D3800085D3800085D3800084C
:10382000513800085D3800085D3800085D38000830
:103830004B3800085D3800085D3800085D38000826
:10384000573800080023FB7718E10223FB7715E1C6
:103850000423FB7712E10823FB770FE11023FB77AA
:103860000CE17B681B68684A934220D1644BD3F813
:10387000903003F03003302B13D0302B14D8202B92
:1038800009D0202B10D8002B02D0102B06D00BE033
:103890000023FB77F2E00223FB77EFE00423FB77C2
:1038A000ECE00823FB77E9E01023FB77E6E07B6898
:1038B0001B68564A934220D1514BD3F8903003F005
:1038C000C003C02B13D0C02B14D8802B09D0802B61
:1038D00010D8002B02D0402B06D00BE00023FB7742
:1038E000CCE00223FB77C9E00423FB77C6E0082382
:1038F000FB77C3E01023FB77C0E07B681B68444A7A
:10390000934225D13E4BD3F8903003F44073B3F586
:10391000407F17D0B3F5407F17D8B3F5007F0BD0A9
:10392000B3F5007F11D8002B03D0B3F5807F06D00C
:103930000BE00023FB77A1E00223FB779EE004234A
:10394000FB779BE00823FB7798E01023FB7795E05B
:103950007B681B682F4A934225D1294BD3F89030BE
:1039600003F44063B3F5406F17D0B3F5406F17D839
:10397000B3F5006F0BD0B3F5006F11D8002B03D057
:10398000B3F5806F06D00BE00123FB7776E00223CE
:10399000FB7773E00423FB7770E00823FB776DE08F
:1039A0001023FB776AE07B681B681B4A934238D17F
:1039B000134BD3F8903003F44053B3F5405F17D066
:1039C000B3F5405F2AD8B3F5005F0BD0B3F5005FC5
:1039D00024D8002B03D0B3F5805F06D01EE000236F
:1039E000FB774BE00223FB7748E00423FB7745E0BD
:1039F0000823FB7742E000BFF369FFEF00100140AE
:103A0000003802400044004000480040004C0040A4
:103A10000050004000140140007800401023FB7764
:103A20002CE07B681B68724A934225D1714BD3F816
:103A3000903003F44043B3F5404F17D0B3F5404FF7
:103A400017D8B3F5004F0BD0B3F5004F11D8002BAA
:103A500003D0B3F5804F06D00BE00023FB770DE0D9
:103A60000223FB770AE00423FB7707E00823FB77B8
:103A700004E01023FB7701E01023FB777B68DB6910
:103A8000B3F5004F5BD1FB7F082B28D801A252F879
:103A900023F000BFB93A0008C13A0008C93A00084B
:103AA000DF3A0008CF3A0008DF3A0008DF3A0008A2
:103AB000DF3A0008D73A0008FDF72EFEB86113E0A0
:103AC000FDF73EFEB8610FE04B4BBB610CE0FDF72C
:103AD00011FDB86108E04FF40043BB6104E000232E
:103AE000BB610123BB7700BFBB69002B74D0BB69EE
:103AF0005A007B685B685B081A447B685B68B2FBB2
:103B0000F3F33B613B690F2B16D93B69B3F5803F5B
:103B100012D23B699BB223F00F03FB813B695B0828
:103B20009BB203F007039AB2FB891343FB817B68C6
:103B30001B68FA89DA604FE00123BB774CE0FB7F1A
:103B4000082B28D801A252F823F000BF713B0008CF
:103B5000793B0008813B0008973B0008873B000841
:103B6000973B0008973B0008973B00088F3B0008F5
:103B7000FDF7D2FDB86113E0FDF7E2FDB8610FE09B
:103B80001D4BBB610CE0FDF7B5FCB86108E04FF4DC
:103B90000043BB6104E00023BB610123BB7700BF8E
:103BA000BB69002B18D07B685B685A08BB691A4454
:103BB0007B685B68B2FBF3F33B613B690F2B09D970
:103BC0003B69B3F5803F05D23B699AB27B681B68BD
:103BD000DA6001E00123BB777B6800229A667B688C
:103BE0000022DA66BB7F18462037BD4680BD00BF85
:103BF000007C0040003802400024F40080B483B010
:103C000000AF78607B685B6A03F00803002B0AD082
:103C10007B681B685B6823F400417B685A6B7B6898
:103C20001B680A435A607B685B6A03F00103002B40
:103C30000AD07B681B685B6823F400317B689A6A52
:103C40007B681B680A435A607B685B6A03F0020367
:103C5000002B0AD07B681B685B6823F480317B688B
:103C6000DA6A7B681B680A435A607B685B6A03F008
:103C70000403002B0AD07B681B685B6823F4802157
:103C80007B681A6B7B681B680A435A607B685B6AB7
:103C900003F01003002B0AD07B681B689B6823F499
:103CA00080517B689A6B7B681B680A439A607B68CB
:103CB0005B6A03F02003002B0AD07B681B689B68BB
:103CC00023F400517B68DA6B7B681B680A439A60B7
:103CD0007B685B6A03F04003002B1AD07B681B688B
:103CE0005B6823F480117B681A6C7B681B680A434D
:103CF0005A607B681B6CB3F5801F0AD17B681B6818
:103D00005B6823F4C0017B685A6C7B681B680A43BC
:103D10005A607B685B6A03F08003002B0AD07B68E3
:103D20001B685B6823F400217B689A6C7B681B68C6
:103D30000A435A6000BF0C37BD465DF8047B7047EC
:103D400080B58CB002AF78607B680022C3F8842015
:103D5000FEF778FF78627B681B681B6803F0080336
:103D6000082B2ED16FF07E4300937B6A00224FF424
:103D70000011786800F03BF80346002B21D07B68E7
:103D80001B683B613B6953E8003FFB60FB6823F025
:103D900080033B627B681B681A463B6AFB61BA6121
:103DA000B969FA6941E800237B617B69002BE6D1A0
:103DB0007B682022DA677B68002283F8782003235F
:103DC00011E07B682022DA677B682022C3F880201C
:103DD0007B6800221A667B6800225A667B68002294
:103DE00083F87820002318462837BD4680BD80B56B
:103DF00084B000AFF860B9603B601346FB714FE0E0
:103E0000BB69B3F1FF3F4BD0FEF71CFF02463B6896
:103E1000D31ABA699A4202D3BB69002B01D103239A
:103E20004EE0FB681B681B6803F00403002B37D0CF
:103E3000BB68802B34D0BB68402B31D0FB681B683B
:103E4000DB6903F00803082B10D1FB681B6808220C
:103E50001A62F86800F0C4F9FB680822C3F88420ED
:103E6000FB68002283F87820012329E0FB681B68A7
:103E7000DB6903F40063B3F5006F11D1FB681B68C5
:103E80004FF400621A62F86800F0AAF9FB68202279
:103E9000C3F88420FB68002283F8782003230FE016
:103EA000FB681B68DA69BB681340BA689A420CBFAA
:103EB00001230023DBB21A46FB799A42A0D00023EB
:103EC00018461037BD4680BD80B497B000AFF8608B
:103ED000B9601346FB80FB68BA685A65FB68FA88CC
:103EE000A3F85820FB68FA88A3F85A20FB68002240
:103EF0009A66FB689B68B3F5805F0ED1FB681B690F
:103F0000002B05D1FB6840F2FF12A3F85C202DE0E6
:103F1000FB68FF22A3F85C2028E0FB689B68002B6D
:103F20000DD1FB681B69002B04D1FB68FF22A3F8AD
:103F30005C201BE0FB687F22A3F85C2016E0FB6896
:103F40009B68B3F1805F0DD1FB681B69002B04D126
:103F5000FB687F22A3F85C2008E0FB683F22A3F8FF
:103F60005C2003E0FB680022A3F85C20FB680022D1
:103F7000C3F88420FB682222C3F88020FB681B68FA
:103F80000833FB63FB6B53E8003FBB63BB6B43F041
:103F900001037B65FB681B6808337A6DBA647B6438
:103FA000796CBA6C41E800233B643B6C002BE5D193
:103FB000FB689B68B3F5805F07D1FB681B69002B2A
:103FC00003D1FB68214A9A6602E0FB68204A9A66A0
:103FD000FB681B69002B19D0FB681B68BB62BB6ABE
:103FE00053E8003F7B627B6A43F49073FB64FB6899
:103FF0001B681A46FB6C7B633A63396B7A6B41E84A
:104000000023FB62FB6A002BE6D118E0FB681B680B
:104010007B617B6953E8003F3B613B6943F02003D0
:104020003B65FB681B681A463B6D3B62FA61F969A8
:104030003A6A41E80023BB61BB69002BE6D100234B
:1040400018465C37BD465DF8047B70473F49000861
:104050009747000880B596B000AFF860B960134686
:10406000FB80FB68BA685A65FB68FA88A3F8582099
:10407000FB680022C3F88420FB682222C3F880205A
:10408000FB685B6F002B28D0FB685B6F3E4ADA63EE
:10409000FB685B6F3D4A1A64FB685B6F3C4ADA64FD
:1040A000FB685B6F00221A65FB68586FFB681B6832
:1040B00024331946FB685B6D1A46FB88FEF7E8F966
:1040C0000346002B09D0FB681022C3F88420FB684C
:1040D0002022C3F88020012351E0FB681B69002BDC
:1040E00018D0FB681B68FB63FB6B53E8003FBB63A6
:1040F000BB6B43F480737B65FB681B681A467B6D62
:10410000BB647A64796CBA6C41E800233B643B6C15
:10411000002BE6D1FB681B680833BB62BB6A53E81F
:10412000003F7B627B6A43F001033B65FB681B68D1
:1041300008333A6D7A633B63396B7A6B41E800234D
:10414000FB62FB6A002BE5D1FB681B6808337B61CF
:104150007B6953E8003F3B613B6943F04003FB64EC
:10416000FB681B680833FA6C3A62FB61F9693A6ACA
:1041700041E80023BB61BB69002BE5D10023184651
:104180005837BD4680BD00BF5B430008B9440008F6
:104190002B45000880B489B000AF78607B681B684D
:1041A000FB60FB6853E8003FBB60BB6823F0C003C3
:1041B000FB617B681B681A46FB69BB617A617969A0
:1041C000BA6941E800233B613B69002BE6D17B687B
:1041D0002022DA6700BF2437BD465DF8047B7047B4
:1041E00080B495B000AF78607B681B687B637B6BA5
:1041F00053E8003F3B633B6B23F49073FB647B68A5
:104200001B681A46FB6C3B64FA63F96B3A6C41E835
:104210000023BB63BB6B002BE6D17B681B680833B4
:104220003B623B6A53E8003FFB61FB6923F00103FB
:10423000BB647B681B680833BA6CFA62BB62B96AFC
:10424000FA6A41E800237B627B6A002BE5D17B6838
:104250001B6E012B18D17B681B68FB60FB6853E861
:10426000003FBB60BB6823F010037B647B681B6866
:104270001A467B6CBB617A617969BA6941E80023AF
:104280003B613B69002BE6D17B682022C3F880208C
:104290007B6800221A667B6800229A6600BF54374A
:1042A000BD465DF8047B704780B590B000AF786084
:1042B0007B689B6BFB637B68DB69B3F5807F37D0E2
:1042C000FB6B0022A3F85220FB6B1B6808337B6258
:1042D0007B6A53E8003F3B623B6A23F08003BB6389
:1042E000FB6B1B680833BA6B3A63FB62F96A3A6B83
:1042F00041E80023BB62BB6A002BE5D1FB6B1B6866
:104300003B613B6953E8003FFB60FB6843F04003BF
:104310007B63FB6B1B681A467B6BFB61BA61B969F7
:10432000FA6941E800237B617B69002BE6D102E05A
:10433000F86B06F0D7FA00BF4037BD4680BD80B5A8
:1043400084B000AF78607B689B6BFB60F868FFF718
:10435000D1F900BF1037BD4680BD80B59CB000AF1D
:1043600078607B689B6BFB667B68DB69B3F5807F5D
:1043700071D0FB6E0022A3F85A20FB6E1B68BB6451
:10438000BB6C53E8003F7B647B6C23F48073BB669B
:10439000FB6E1B681A46BB6E7B653A65396D7A6D9C
:1043A00041E80023FB64FB6C002BE6D1FB6E1B682D
:1043B00008337B637B6B53E8003F3B633B6B23F02D
:1043C00001037B66FB6E1B6808337A6E3A64FB63FD
:1043D000F96B3A6C41E80023BB63BB6B002BE5D162
:1043E000FB6E1B6808333B623B6A53E8003FFB618E
:1043F000FB6923F040033B66FB6E1B6808333A6E93
:10440000FA62BB62B96AFA6A41E800237B627B6A9E
:10441000002BE5D1FB6E2022C3F88020FB6E1B6EC3
:10442000012B18D1FB6E1B68FB60FB6853E8003F53
:10443000BB60BB6823F01003FB65FB6E1B681A466C
:10444000FB6DBB617A617969BA6941E800233B6120
:104450003B69002BE6D1FB6E00225A66FB6E1B6E99
:10446000012B22D1FB6E0022A3F85A207B681B6827
:104470005B68A7F85A30FB6EB3F85830B7F85A208B
:104480009A4204D2FB6EB7F85A20A3F85A20FB6E6A
:10449000B3F85820FB6EB3F85A309BB2D31A9BB2D4
:1044A0001946F86EFFF73AF902E0F86E06F04EFA98
:1044B00000BF7037BD4680BD80B584B000AF786066
:1044C0007B689B6BFB60FB6801225A66FB681B6E76
:1044D000012B23D1FB68B3F858305B089AB2FB6814
:1044E000A3F85A207B681B685B687B81FB68B3F884
:1044F00058307A899A4203D8FB687A89A3F85A20FF
:10450000FB68B3F85820FB68B3F85A309BB2D31A53
:104510009BB21946F868FFF701F902E0F868FFF767
:10452000F3F800BF1037BD4680BD80B586B000AF40
:1045300078607B689B6B7B617B69DB6F3B617B6930
:10454000D3F88030FB607B691B689B6803F08003B5
:10455000802B09D13B69212B06D17B690022A3F86E
:1045600052207869FFF716FE7B691B689B6803F091
:104570004003402B09D1FB68222B06D17B69002226
:10458000A3F85A207869FFF72BFE7B69D3F88430B3
:1045900043F010027B69C3F88420786906F0BCF907
:1045A00000BF1837BD4680BD80B584B000AF7860CD
:1045B0007B689B6BFB60FB680022A3F85A20F868BD
:1045C00006F0AAF900BF1037BD4680BD80B48FB099
:1045D00000AF78607B68DB6F212B4CD17B68B3F830
:1045E00052309BB2002B32D17B681B683B623B6A26
:1045F00053E8003FFB61FB6923F080037B637B682A
:104600001B681A467B6BFB62BA62B96AFA6A41E8B8
:1046100000237B627B6A002BE6D17B681B68FB6012
:10462000FB6853E8003FBB60BB6843F040033B635B
:104630007B681B681A463B6BBB617A617969BA6912
:1046400041E800233B613B69002BE6D113E07B6826
:10465000DB6C1A787B681B689A627B68DB6C5A1C7F
:104660007B68DA647B68B3F852309BB2013B9AB244
:104670007B68A3F8522000BF3C37BD465DF8047B41
:10468000704780B491B000AF78607B68DB6F212BFE
:1046900051D17B68B3F852309BB2002B32D17B688A
:1046A0001B687B627B6A53E8003F3B623B6A23F0F6
:1046B0008003BB637B681B681A46BB6B3B63FA6273
:1046C000F96A3A6B41E80023BB62BB6A002BE6D172
:1046D0007B681B683B613B6953E8003FFB60FB68FC
:1046E00043F040037B637B681B681A467B6BFB616E
:1046F000BA61B969FA6941E800237B617B69002BE3
:10470000E6D118E07B68DB6CFB63FB6B1B881A4609
:104710007B681B68C2F308029A627B68DB6C9A1C98
:104720007B68DA647B68B3F852309BB2013B9AB283
:104730007B68A3F8522000BF4437BD465DF8047B78
:10474000704780B588B000AF78607B681B68FB60FD
:10475000FB6853E8003FBB60BB6823F04003FB618C
:104760007B681B681A46FB69BB617A617969BA6923
:1047700041E800233B613B69002BE6D17B682022A6
:10478000DA677B680022DA66786806F0ABF800BF6B
:104790002037BD4680BD80B59CB000AF78607B6897
:1047A000B3F85C30A7F86E307B68D3F88030222BEA
:1047B00040F0B9807B681B685B6AA7F86C30B7F87B
:1047C0006C30D9B2B7F86E30DAB27B685B6D0A40F4
:1047D000D2B21A707B685B6D5A1C7B685A657B6825
:1047E000B3F85A309BB2013B9AB27B68A3F85A20C7
:1047F0007B68B3F85A309BB2002B40F09C807B68FA
:104800001B68FB64FB6C53E8003FBB64BB6C23F488
:104810009073BB667B681B681A46BB6EBB657A6586
:10482000796DBA6D41E800233B653B6D002BE6D105
:104830007B681B680833BB63BB6B53E8003F7B633B
:104840007B6B23F001037B667B681B6808337A6E01
:104850007A643B64396C7A6C41E80023FB63FB6B40
:10486000002BE5D17B682022C3F880207B680022E2
:104870009A667B6800225A667B681B685B6803F453
:104880000003002B18D07B681B687B627B6A53E8AF
:10489000003F3B623B6A23F080633B667B681B689A
:1048A0001A463B6E3B63FA62F96A3A6B41E80023B1
:1048B000BB62BB6A002BE6D17B681B6E012B2ED13D
:1048C0007B6800221A667B681B683B613B6953E882
:1048D000003FFB60FB6823F01003FB657B681B68EF
:1048E0001A46FB6DFB61BA61B969FA6941E80023B8
:1048F0007B617B69002BE6D17B681B68DB6903F079
:104900001003102B03D17B681B6810221A627B688E
:10491000B3F8583019467868FEF700FF0BE0786866
:1049200006F014F807E07B681B689A697B681B68CF
:1049300042F008029A6100BF7037BD4680BD80B565
:104940009CB000AF78607B68B3F85C30A7F86E303D
:104950007B68D3F88030222B40F0B9807B681B68DD
:104960005B6AA7F86C307B685B6DBB66B7F86C2040
:10497000B7F86E3013409AB2BB6E1A807B685B6DDD
:104980009A1C7B685A657B68B3F85A309BB2013B2E
:104990009AB27B68A3F85A207B68B3F85A309BB26E
:1049A000002B40F09C807B681B68BB64BB6C53E8A9
:1049B000003F7B647B6C23F490737B667B681B6891
:1049C0001A467B6E7B653A65396D7A6D41E8002346
:1049D000FB64FB6C002BE6D17B681B6808337B63B0
:1049E0007B6B53E8003F3B633B6B23F001033B666B
:1049F0007B681B6808333A6E3A64FB63F96B3A6C68
:104A000041E80023BB63BB6B002BE5D17B68202210
:104A1000C3F880207B6800229A667B6800225A6671
:104A20007B681B685B6803F40003002B18D07B686D
:104A30001B683B623B6A53E8003FFB61FB6923F064
:104A40008063FB657B681B681A46FB6DFB62BA627C
:104A5000B96AFA6A41E800237B627B6A002BE6D1DF
:104A60007B681B6E012B2ED17B6800221A667B6847
:104A70001B68FB60FB6853E8003FBB60BB6823F02A
:104A80001003BB657B681B681A46BB6DBB617A610E
:104A90007969BA6941E800233B613B69002BE6D1A3
:104AA0007B681B68DB6903F01003102B03D17B6864
:104AB0001B6810221A627B68B3F858301946786870
:104AC000FEF72CFE0BE0786805F040FF07E07B68FE
:104AD0001B689A697B681B6842F008029A6100BFF4
:104AE0007037BD4680BD80B483B000AF78607B680E
:104AF00003F108027B685A607B684FF0FF329A60CE
:104B00007B6803F108027B68DA607B6803F10802C6
:104B10007B681A617B6800221A6000BF0C37BD46B3
:104B20005DF8047B704780B483B000AF78607B6829
:104B300000221A6100BF0C37BD465DF8047B704748
:104B400080B485B000AF786039607B685B68FB60DB
:104B50003B68FA685A60FB689A683B689A60FB6831
:104B60009B683A685A60FB683A689A603B687A6862
:104B70001A617B681B685A1C7B681A6000BF143777
:104B8000BD465DF8047B704780B485B000AF7860A7
:104B900039603B681B68BB60BB68B3F1FF3F03D162
:104BA0007B681B69FB600CE07B680833FB6002E0FC
:104BB000FB685B68FB60FB685B681B68BA689A42CD
:104BC000F6D2FB685A683B685A603B685B683A6893
:104BD0009A603B68FA689A60FB683A685A603B687A
:104BE0007A681A617B681B685A1C7B681A6000BF70
:104BF0001437BD465DF8047B704780B485B000AFC4
:104C000078607B681B69FB607B685B687A68926888
:104C10009A607B689B687A6852685A60FB685B6838
:104C20007A689A4203D17B689A68FB685A607B680D
:104C300000221A61FB681B685A1EFB681A60FB6839
:104C40001B6818461437BD465DF8047B70470000AA
:104C500080B584B000AF786039607B68FB60FB682A
:104C6000002B0DD14FF0500372B683F31188BFF3C0
:104C70006F8FBFF34F8F62B6BB6000BF00BFFDE711
:104C800002F07CFCFB681A68FB68DB6BF968096C56
:104C900001FB03F31A44FB689A60FB6800229A63E5
:104CA000FB681A68FB685A60FB681A68FB68DB6B74
:104CB000013BF968096C01FB03F31A44FB68DA60F5
:104CC000FB68FF2283F84420FB68FF2283F845201D
:104CD0003B68002B14D1FB681B69002B1AD0FB68C2
:104CE0001033184601F086F90346002B12D00D4B05
:104CF0004FF080521A60BFF34F8FBFF36F8F09E000
:104D0000FB6810331846FFF7EEFEFB6824331846A5
:104D1000FFF7E9FE02F068FC012318461037BD4694
:104D200080BD00BF04ED00E080B58EB002AFF8603A
:104D3000B9607A603B60FB68002B0DD14FF05003E7
:104D400072B683F31188BFF36F8FBFF34F8F62B6D4
:104D5000BB6200BF00BFFDE73B68002B0DD14FF0E9
:104D6000500372B683F31188BFF36F8FBFF34F8F79
:104D700062B67B6200BF00BFFDE77B68002B02D0FC
:104D8000BB68002B01D0012300E00023002B0DD1D4
:104D90004FF0500372B683F31188BFF36F8FBFF3E8
:104DA0004F8F62B63B6200BF00BFFDE77B68002B00
:104DB00002D1BB68002B01D1012300E00023002BAE
:104DC0000DD14FF0500372B683F31188BFF36F8F8C
:104DD000BFF34F8F62B6FB6100BF00BFFDE75023FA
:104DE0007B617B69502B0DD04FF0500372B683F37B
:104DF0001188BFF36F8FBFF34F8F62B6BB6100BFE7
:104E000000BFFDE77B693B68FB62FB6A002B0DD0AE
:104E1000FB6A012283F8462097F83820FB6A00934A
:104E200013467A68B968F86800F005F8FB6A184616
:104E30003037BD4680BD80B584B000AFF860B96042
:104E40007A60FB70BB68002B03D1BB69BA691A603A
:104E500002E0BB697A681A60BB69FA68DA63BB6909
:104E6000BA681A640121B869FFF7F2FEBB69FA78E3
:104E700083F84C2000BF1037BD4680BD80B58EB092
:104E800000AFF860B9607A603B6000237B63FB6829
:104E90003B633B6B002B0DD14FF0500372B683F395
:104EA0001188BFF36F8FBFF34F8F62B6BB6200BF35
:104EB00000BFFDE7BB68002B03D13B6B1B6C002BD5
:104EC00001D1012300E00023002B0DD14FF050034E
:104ED00072B683F31188BFF36F8FBFF34F8F62B643
:104EE0007B6200BF00BFFDE73B68022B03D13B6B39
:104EF000DB6B012B01D1012300E00023002B0DD13E
:104F00004FF0500372B683F31188BFF36F8FBFF376
:104F10004F8F62B63B6200BF00BFFDE701F032FA7F
:104F20000346002B02D17B68002B01D1012300E056
:104F30000023002B0DD14FF0500372B683F311887C
:104F4000BFF36F8FBFF34F8F62B6FB6100BF00BF2F
:104F5000FDE702F013FB3B6B9A6B3B6BDB6B9A42FA
:104F600002D33B68022B29D13A68B968386B00F04C
:104F70001BFAF8623B6B5B6A002B10D03B6B24334F
:104F8000184601F037F80346002B13D03F4B4FF083
:104F900080521A60BFF34F8FBFF36F8F0AE0FB6A36
:104FA000002B07D0394B4FF080521A60BFF34F8F60
:104FB000BFF36F8F02F018FB012363E07B68002BC7
:104FC00003D102F011FB00235CE07B6B002B06D1C8
:104FD00007F11403184601F073F801237B6302F014
:104FE00003FB00F0C5FD02F0C9FA3B6B93F84430B7
:104FF0005BB2B3F1FF3F03D13B6B002283F8442047
:105000003B6B93F845305BB2B3F1FF3F03D13B6B91
:10501000002283F8452002F0E7FA3A1D07F1140355
:105020001146184601F062F80346002B24D1386B74
:1050300000F0B2FA0346002B18D03B6B10337A68AD
:105040001146184600F080FF386B00F03DFA00F082
:105050009DFD0346002B7FF47CAF0C4B4FF080523C
:105060001A60BFF34F8FBFF36F8F72E7386B00F09A
:105070002BFA00F08BFD6CE7386B00F025FA00F09E
:1050800085FD002318463837BD4680BD04ED00E09D
:1050900080B58EB000AFF860B9607A603B60FB68A5
:1050A0003B633B6B002B0DD14FF0500372B683F383
:1050B0001188BFF36F8FBFF34F8F62B67B6200BF63
:1050C00000BFFDE7BB68002B03D13B6B1B6C002BC3
:1050D00001D1012300E00023002B0DD14FF050033C
:1050E00072B683F31188BFF36F8FBFF34F8F62B631
:1050F0003B6200BF00BFFDE73B68022B03D13B6B67
:10510000DB6B012B01D1012300E00023002B0DD12B
:105110004FF0500372B683F31188BFF36F8FBFF364
:105120004F8F62B6FB6100BF00BFFDE702F00EFBD0
:10513000EFF311824FF0500372B683F31188BFF37F
:105140006F8FBFF34F8F62B6BA617B61BB69FB6241
:105150003B6B9A6B3B6BDB6B9A4202D33B68022B37
:105160002CD13B6B93F8453087F82B303A68B968FF
:10517000386B00F019F997F92B30B3F1FF3F12D1DA
:105180003B6B5B6A002B16D03B6B2433184600F058
:1051900031FF0346002B0ED07B68002B0BD07B68C1
:1051A00001221A6007E097F82B300133DBB25AB2C4
:1051B0003B6B83F8452001237B6301E000237B6385
:1051C000FB6A3B613B6983F3118800BF7B6B184628
:1051D0003837BD4680BD000080B58CB000AFF860A8
:1051E000B9607A600023FB62FB68BB62BB6A002B7C
:1051F0000DD14FF0500372B683F31188BFF36F8F58
:10520000BFF34F8F62B63B6200BF00BFFDE7BB68D4
:10521000002B03D1BB6A1B6C002B01D1012300E0E2
:105220000023002B0DD14FF0500372B683F3118889
:10523000BFF36F8FBFF34F8F62B6FB6100BF00BF3C
:10524000FDE701F09FF80346002B02D17B68002B9D
:1052500001D1012300E00023002B0DD14FF05003BA
:1052600072B683F31188BFF36F8FBFF34F8F62B6AF
:10527000BB6100BF00BFFDE702F080F9BB6A9B6B1A
:105280007B627B6A002B1FD0B968B86A00F0F6F821
:105290007B6A5A1EBB6A9A63BB6A1B69002B0FD0DC
:1052A000BB6A1033184600F0A5FE0346002B07D05A
:1052B0003C4B4FF080521A60BFF34F8FBFF36F8F9C
:1052C00002F092F9012369E07B68002B03D102F020
:1052D0008BF9002362E0FB6A002B06D107F1100373
:1052E000184600F0EDFE0123FB6202F07DF900F0AC
:1052F0003FFC02F043F9BB6A93F844305BB2B3F170
:10530000FF3F03D1BB6A002283F84420BB6A93F8B5
:1053100045305BB2B3F1FF3F03D1BB6A002283F893
:10532000452002F061F93A1D07F1100311461846B5
:1053300000F0DCFE0346002B23D1B86A00F016F91A
:105340000346002B17D0BB6A24337A6811461846EF
:1053500000F0FAFDB86A00F0B7F800F017FC034659
:10536000002B89D10F4B4FF080521A60BFF34F8F43
:10537000BFF36F8F80E7B86A00F0A6F800F006FC74
:105380007AE7B86A00F0A0F800F000FCB86A00F014
:10539000EDF80346002B3FF46FAF0023184630377B
:1053A000BD4680BD04ED00E080B586B000AFF8607A
:1053B000B9607A6000237B61FB689B6B3B61FB6893
:1053C0001B6C002B0DD1FB681B68002B4DD1FB68BB
:1053D0009B68184600F0F4FF7861FB6800229A6031
:1053E00043E07B68002B19D1FB685868FB681B6C95
:1053F0001A46B96809F064FDFB685A68FB681B6CC3
:105400001A44FB685A60FB685A68FB689B689A42BA
:105410002BD3FB681A68FB685A6026E0FB68D868E3
:10542000FB681B6C1A46B96809F04AFDFB68DA682C
:10543000FB681B6C5B421A44FB68DA60FB68DA6845
:10544000FB681B689A4207D2FB689A68FB681B6C72
:105450005B421A44FB68DA607B68022B05D13B692A
:10546000002B02D03B69013B3B613B695A1CFB6846
:105470009A637B6918461837BD4680BD80B582B0F7
:1054800000AF786039607B681B6C002B18D07B689C
:10549000DA687B681B6C1A447B68DA607B68DA68C0
:1054A0007B689B689A4203D37B681A687B68DA60E2
:1054B0007B68D9687B681B6C1A46386809F000FD68
:1054C00000BF0837BD4680BD80B584B000AF7860AE
:1054D00002F054F87B6893F84530FB7311E07B6869
:1054E0005B6A002B12D07B682433184600F082FDE3
:1054F0000346002B01D000F061FEFB7B013BDBB2D9
:10550000FB7397F90F30002BE9DC00E000BF7B68EC
:10551000FF2283F8452002F067F802F02FF87B683D
:1055200093F84430BB7311E07B681B69002B12D0E9
:105530007B681033184600F05DFD0346002B01D058
:1055400000F03CFEBB7B013BDBB2BB7397F90E3036
:10555000002BE9DC00E000BF7B68FF2283F84420D9
:1055600002F042F800BF1037BD4680BD80B584B060
:1055700000AF786002F002F87B689B6B002B02D1D1
:105580000123FB6001E00023FB6002F02DF8FB68C3
:1055900018461037BD4680BD80B584B000AF786036
:1055A00001F0ECFF7B689A6B7B68DB6B9A4202D15F
:1055B0000123FB6001E00023FB6002F015F8FB68AB
:1055C00018461037BD4680BD80B586B000AFF86084
:1055D000B9607A60FB687B6101F0D0FF7B6993F86A
:1055E00044305BB2B3F1FF3F03D17B69002283F803
:1055F00044207B6993F845305BB2B3F1FF3F03D1A0
:105600007B69002283F8452001F0EEFF7B699B6BEC
:10561000002B06D17B6924337A68B968184600F0FC
:10562000BBFC7869FFF750FF00BF1837BD4680BD4F
:1056300080B58EB004AFF860B9607A603B607B6B78
:10564000002B0DD14FF0500372B683F31188BFF3D6
:105650006F8FBFF34F8F62B63B6200BF00BFFDE7A5
:10566000BB6B002B0DD14FF0500372B683F3118842
:10567000BFF36F8FBFF34F8F62B6FB6100BF00BFF8
:10568000FDE75C233B613B695C2B0DD04FF0500381
:1056900072B683F31188BFF36F8FBFF34F8F62B67B
:1056A000BB6100BF00BFFDE73B69BB6B002B1ED099
:1056B0007B6B002B1BD0BB6B7B627B6A7A6B1A63A4
:1056C0007B6A022283F85920002303937B6A0293AA
:1056D00007F1140301933B6B00933B687A68B96848
:1056E000F86800F050F8786A00F0E0F801E0002374
:1056F0007B617B6918462837BD4680BD80B58CB07C
:1057000004AFF860B9603B601346FB80FB889B00E8
:10571000184601F037FC78617B69002B0ED05C20C5
:1057200001F030FCF861FB69002B03D0FB697A695A
:105730001A6305E0786901F0F3FC01E00023FB61E6
:10574000FB69002B17D0FB69002283F85920FA88E7
:1057500000230393FB690293FB6A0193BB6A0093E6
:105760003B68B968F86800F00EF8F86900F09EF838
:105770000123BB6102E04FF0FF33BB61BB691846F8
:105780002037BD4680BD80B588B000AFF860B960F5
:105790007A603B603B6B186B7B689B001A46A521C7
:1057A00009F04AFB3B6B1A6B79686FF040430B447E
:1057B0009B001344BB61BB6923F00703BB61BB695A
:1057C00003F00703002B0DD04FF0500372B683F3A4
:1057D0001188BFF36F8FBFF34F8F62B67B6100BF3D
:1057E00000BFFDE7BB68002B1FD00023FB6112E068
:1057F000BA68FB69134419783A6BFB691344343374
:105800000A461A70BA68FB6913441B78002B06D04D
:10581000FB690133FB61FB690F2BE9D900E000BF95
:105820003B6B002283F8432003E03B6B002283F8AC
:105830003420BB6A372B01D93723BB623B6BBA6A72
:10584000DA623B6BBA6ADA643B6B00221A653B6B27
:1058500004331846FFF767F93B6B18331846FFF718
:1058600062F93B6B3A6B1A61BB6AC3F138023B6B5E
:105870009A613B6B3A6B5A623B6B00225A653B6BF9
:10588000002283F858203A68F968B86901F064FD8D
:1058900002463B6B1A60FB6A002B02D0FB6A3A6B34
:1058A0001A6000BF2037BD4680BD000080B582B0C1
:1058B00000AF786001F062FE2D4B1B6801332C4A6B
:1058C00013602C4B1B68002B09D12A4A7B6813609C
:1058D000274B1B68012B10D100F094FC0DE0264BE8
:1058E0001B68002B09D1234B1B68DA6A7B68DB6AD3
:1058F0009A4202D81F4A7B681360204B1B68013311
:105900001E4A13601D4B1A687B685A647B68DA6A0A
:105910001B4B1B689A4203D97B68DB6A184A1360E9
:105920007B68DA6A13469B0013449B00154A1A44AD
:105930007B68043319461046FFF702F901F054FE64
:105940000D4B1B68002B0ED00A4B1B68DA6A7B6874
:10595000DB6A9A4207D20C4B4FF080521A60BFF3B9
:105960004F8FBFF36F8F00BF0837BD4680BD00BFAC
:1059700094050020C0000020A0050020B0050020F4
:105980009C050020C400002004ED00E080B58AB032
:1059900000AF7860396000237B627B68002B0DD1FB
:1059A0004FF0500372B683F31188BFF36F8FBFF3CC
:1059B0004F8F62B67B6100BF00BFFDE73B68002BE5
:1059C0000DD14FF0500372B683F31188BFF36F8F80
:1059D000BFF34F8F62B63B6100BF00BFFDE72B4BAB
:1059E0001B68002B0DD04FF0500372B683F3118863
:1059F000BFF36F8FBFF34F8F62B6FB6000BF00BF76
:105A0000FDE700F0B5F8224B1B683B627B681B6822
:105A10003A681344FB617B681B683A6A9A420BD26E
:105A20007B681B68FA699A4211D2FA693B6A9A420A
:105A30000DD901237B620AE07B681B68FA699A42F0
:105A400003D3FA693B6A9A4201D901237B627B68DE
:105A5000FA691A607B6A002B06D0FA693B6AD31A8E
:105A60000021184600F020FD00F090F8B861BB69F5
:105A7000002B07D1074B4FF080521A60BFF34F8FB6
:105A8000BFF36F8F00BF2837BD4680BDBC05002027
:105A90009805002004ED00E080B58AB004AF002333
:105AA000BB6000237B603A46391D07F108031846A6
:105AB00001F034FA39687B68BA68029201930023D6
:105AC000009300230A4624492448FFF7B1FD03460A
:105AD000234A1360224B1B68002B02D001237B61F9
